:020000040800F2
:10000000609D0020651D0008DB010008DD0100087F
:10001000E1010008E5010008E90100080000000016
:100020000000000000000000000000004501000882
:10003000ED0100080000000089010008EF01000840
:100040007F1D00087F1D00087F1D00087F1D000820
:100050007F1D00087F1D00087F1D00087F1D000810
:100060007F1D00087F1D00087F1D00087F1D000800
:100070007F1D00087F1D00087F1D00087F1D0008F0
:100080007F1D00087F1D00087F1D00087F1D0008E0
:100090007F1D00087F1D00087F1D00087F1D0008D0
:1000A0007F1D00087F1D00087F1D00087F1D0008C0
:1000B0007F1D00087F1D00087F1D00087F1D0008B0
:1000C0007F1D00087F1D00087F1D00087F1D0008A0
:1000D0007F1D00089B1C00087F1D00087F1D000875
:1000E0007F1D00087F1D00087F1D00087F1D000880
:1000F0007F1D00087F1D00087F1D00087F1D000870
:100100007F1D00087F1D00087F1D00087F1D00085F
:100110007F1D00087F1D00087F1D00087F1D00084F
:100120007F1D00087F1D00087F1D00087F1D00083F
:10013000DFF80CD004F0C8FE004800477305000843
:10014000609D0020224B19680868B0E8F00F80F32A
:100150000988BFF36F8F4FF0000080F311884EF0D5
:100160000D0E70470000000006480068006880F32C
:10017000088862B661B6BFF34F8FBFF36F8F00DFA1
:1001800000BF00BF08ED00E0EFF30980BFF36F8F01
:100190000F4B1A6820E9F00F106008B54FF05000BF
:1001A00080F31188BFF34F8FBFF36F8F03F068FCAC
:1001B0004FF0000080F31188BDE808401968086816
:1001C000B0E8F00F80F30988BFF36F8F704700BF6E
:1001D000B4000020EFF305807047704700BFFEE7D2
:1001E00000BFFEE700BFFEE700BFFEE7704710B5A7
:1001F00004F072F8012801D002F0B5FC10BD000037
:100200000CB50020019000906C48006840F48030EC
:100210006A49086000BF6948006800F40030009037
:100220000198401C0190009818B90198B0F5A06F92
:10023000F1D16248006800F4003010B10120009054
:1002400001E0002000900098012843D15C4800683C
:1002500040F010005A4908600846006820F003008A
:1002600008600846006840F0020008605348406893
:10027000524948600846406848600846406840F473
:10028000806048600846406820F47C10486008465A
:10029000406840F4E81048600846006840F080700C
:1002A000086000BF4548006800F000700028F9D0E1
:1002B0004248406820F003004049486008464068D2
:1002C00040F00200486000BF3C48406800F00C006D
:1002D0000828F9D10CBD10B5FFF792FF10BD10B57D
:1002E0003648006840F0010034490860084640681C
:1002F000344908403149486008460068324908409E
:100300002E4908600846006820F4802008600846EE
:10031000406820F4FE0048604FF41F008860FFF73B
:10032000DAFF4FF000602949086010BD10B50021C8
:1003300000200022214B5B6803F00C0121B104294D
:1003400006D0082928D107E0214B224C236027E062
:100350001F4B204C236023E0184B5B6803F47010A4
:10036000164B5B6803F48032022303EB904022B902
:10037000194B4343174C23600DE0104B5B6803F4AB
:10038000003323B1144B4343124C236003E0104B62
:100390004343104C236003E00D4B0E4C236000BF21
:1003A00000BF064B5B68C3F303130C4CE15C094BC5
:1003B0001B68CB40074C236010BD000000100240BA
:1003C000002002400000FFF8FFFFF6FE08ED00E00D
:1003D00000127A000000002000093D000400002007
:1003E00070B505460E46002416E02A5D295D72A010
:1003F00004F00AFE285D202807DB285D7F2804DA48
:10040000295D72A004F000FE02E071A004F0FCFD82
:1004100072A004F0F9FD641CB442E6D370A004F0AD
:10042000F3FD70BD1CB5044620782189CDE900108C
:100430002289A1787048636804F0E6FD1CBD70B5A0
:1004400005460C462046FFF7EDFF012070BD1CB5A8
:1004500012E06AA0AD21724B72A2CDE9001075A125
:10046000012000F043FA0D227449754801F052FC56
:100470004FF47A7003F0BCF9EBE703E04FF4FA6055
:1004800003F0B6F9FAE70EE000206E4908604FF479
:10049000FA7003F0ADF901206B49C1F8A0014FF4E7
:1004A000FA7003F0A5F9EFE71CB5012402F020FB78
:1004B0006648022100230A02CDE9001064A16748C2
:1004C00002F08DFE0446012C02D165A004F09CFDD3
:1004D0006A48032100234FF40072CDE9001068A19F
:1004E0006A4802F07CFE0446012C02D168A004F0A8
:1004F0008BFD6E48032100234FF40072CDE90010FC
:100500006BA16E4802F06BFE0446012C02D16CA078
:1005100004F07AFD7048006802F0AEFE02F00BFBBA
:100520001CBD10B54FF4407002F0B2F901F030FB81
:100530004FF4E13001F062FB00F01FFCFF210020CE
:1005400000F085FC0721012000F081FC072102203A
:1005500000F07DFC0721032000F079FCA721042096
:1005600000F075FCA721052000F071FC00F054FCA0
:1005700010BD1CB50124FFF7D4FF58A161A004F001
:1005800043FD62A264A167A004F03EFD5248012130
:1005900000234A02CDE9001069A16D4802F01FFE58
:1005A0000446012C02D103F03EFC02E04FF0FF3084
:1005B0001CBD00BFFEE70000253375201B5B3934EE
:1005C0006D253032581B5B306D0000002025630024
:1005D000201B5B33316D2E1B5B306D000A00000069
:1005E0002D2D2D20656E64206F66206672616D650D
:1005F000202D2D2D0A0A0000545A00082121212106
:1006000021212121212121212121212121212121DA
:10061000212121212121212121212121212100000C
:100620006C5900082E2E5C4150505C6D61696E2E35
:10063000630000004E4F5F5441470000240000203B
:1006400000380140A0012142000021421800002092
:100650004C4544315F5461736B000000870400080F
:10066000B4B4BDA84C4544315F5461736BC8CECE61
:10067000F1B3C9B9A6210D0A000000001C0000203A
:1006800055534152545F5461736B00007B04000862
:10069000B4B4BDA855534152545F5461736BC8CE76
:1006A000CEF1B3C9B9A6210D0A0000002000002038
:1006B0004C4F475F5461736B000000004F0400080B
:1006C000B4B4BDA84C4F475F5461736BC8CECEF134
:1006D000B3C9B9A6210D0A0014000020546869733B
:1006E000206973204D61696E426F6172642070727F
:1006F0006F6772616D65722072756E6E696E6721CB
:100700002121000025730D0A0000000031343A3227
:10071000323A333400000000417072202031203220
:100720003032330043757272756E742044617465A3
:100730003A25732054696D653A25730D0A0000004F
:100740004170705461736B437265617465000000A1
:10075000A904000810B5002400BF19E0C4EBC401CF
:1007600001EB0412FE491144481C152104F063F901
:100770000021C4EBC40000EB0412F9488154C4EB1F
:10078000C40000EB0412F64810448175601CC4B22A
:10079000052CE3DB10BD10B5F148273890F8B60002
:1007A00038B101F0DBF90020ED49273981F8B800B4
:1007B00004E00020EA49273981F8B70010BD30B5C0
:1007C00085B004460D46052C1CDDE648006800286F
:1007D00011D14FF42A70E449E4A2EBA3CDE9031050
:1007E000CDE9013200900B46F0A2F9A1002000F003
:1007F0007DF800BFFEE74FF42A72DB49DBA0D94B3E
:100800001B689847D648753050F82400284010B12E
:10081000012005B030BD0020FBE710B5D0482738D7
:1008200090F8B60038B101F098F90120CC49273989
:1008300081F8B80004E00120C949273981F8B700E0
:1008400010BD70B586B00646002E1CD1C5480068A4
:10085000002811D14FF4D670DF49E0A2CAA3CDE938
:100860000310CDE9013200900B46D0A2D8A10020A0
:1008700000F03CF800BFFEE74FF4D672D649D7A08F
:10088000B84B1B68984700240525B548273890F8D1
:10089000B40010B9284606B070BD01F05EF900241E
:1008A0001DE0C4EBC40000EB0411AD480844807D9A
:1008B000012812D1C4EBC40000EB0412A848104474
:1008C000411C1422304604F0F0F830B9C4EBC400E7
:1008D00000EB0411A248455C03E0601CC4B2052C87
:1008E000DFDB00BFFFF757FF2846D4E72DE9F04FC5
:1008F0008BB005460F4693469846384604F0C4F838
:10090000814600244FF0020A002009900A900690C8
:1009100007900890052D1CDD92480068002811D131
:1009200040F20A20B24991A297A3CDE90310CDE984
:10093000013200900B469DA2A5A10020FFF7D6FF33
:1009400000BFFEE740F20A22A94988A0854B1B6838
:1009500098478348273890F8B50010B90BB0BDE828
:10096000F08F7F4827380078A84204DB3846FFF72D
:1009700068FFA84200DAF1E779492639384604F0E1
:1009800065F800B9EAE716A80590FFF746FF744836
:10099000273890F8B90078B19648011996A22046F8
:1009A00000F094FF0444954850F82520914801191F
:1009B000204600F08BFF044401212846FFF7FFFE8C
:1009C00040B18F4850F825208A480119204600F090
:1009D0007DFF044402212846FFF7F1FEE8B1854877
:1009E00001193A46204600F071FF0444B9F10A0F9C
:1009F0000CD8C9F10A01202206A804F015F87D4898
:100A0000011906AA204600F061FF04447948011943
:100A10007CA2204600F05AFF04441C212846FFF720
:100A2000CEFE002852D07348011977A2204600F06C
:100A30004DFF044404212846FFF7C1FEA8B101F090
:100A40008EF804906B4801192046049A00F03EFF8E
:100A5000044418212846FFF7B2FE30B16548011959
:100A600068A2204600F032FF044408212846FFF720
:100A7000A6FEA8B101F075F804905E480119204661
:100A8000049A00F023FF044410212846FFF797FE44
:100A900030B1584801195BA2204600F017FF04440A
:100AA00010212846FFF78BFE48B101F05CF8049056
:100AB000504801192046049A00F008FF04444D48AC
:100AC000011952A2204600F001FF0444E02128460B
:100AD000FFF775FE002842D0464801194CA2204677
:100AE00000F0F4FE044420212846FFF768FEF8B128
:100AF000404801195A46204600F0E8FE04444021CF
:100B00002846FFF75CFE38B13A4801193DA220465D
:100B100000F0DCFE04440BE080212846FFF74FFE86
:100B200030B1344801193BA2204600F0CFFE044406
:100B300040212846FFF743FE80B12E480119424666
:100B4000204600F0C3FE044480212846FFF737FE0C
:100B500020B1284801192FA220465DE05FE077E030
:100B60001B01002064000020055A00086C657665B2
:100B70006C203C3D20454C4F475F4C564C5F5645E2
:100B800052424F53450000002825732920686173A5
:100B900020617373657274206661696C656420619D
:100BA000742025733A256C642E0000002E2E5C43C1
:100BB0006F6D706F6E656E74735C656173796C6F69
:100BC000676765725C7372635C656C6F672E630048
:100BD000656C6F6700000000E159000874616720D0
:100BE000213D202828766F6964202A2930290000B9
:100BF000F9590008B00100201B5B00004C000020E8
:100C000034000020200000005B0000005D20000098
:100C1000280000003A00000000F058FE0444802143
:100C20002846FFF7CCFD60B1FBA2052109A8149B63
:100C300004F0FAF9F948011909AA204600F046FE25
:100C40000444F6480119F6A2204600F03FFE044491
:100C5000C4F58061F14A1019059B159A04F0FCF95E
:100C6000064600200590A019B0F5806F03D8002E2D
:100C700001DB344401E04FF48064201D5044B0F5A2
:100C8000806F04D94FF48064241FA4EB0A04E54864
:100C9000807D58B10020E1490855E2491631DF480E
:100CA00003F0D4FE10B9FFF776FD57E6DD4890F863
:100CB000B90030B1D9480119DBA2204600F006FE88
:100CC0000444D6480119DAA2204600F0FFFD04448E
:100CD0002146D24800F038FFFFF75DFD00BF3DE63A
:100CE00010B586B00446052C21DDD24800680028E6
:100CF00015D14FF49370D049AFF29012AFF2781340
:100D0000CDE90310CDE9013200900B46AFF2641239
:100D1000AFF244110020FFF7E9FD00BFFEE74FF4FA
:100D20009372C549AFF2BC10C24B1B689847BD48CF
:100D3000047006B010BDBB4981F8B900704710B50A
:100D40000446B84880F8B64090F8B600A0B1B5485F
:100D500090F8B80030B9B34890F8B70010B100F07F
:100D6000FCFE09E0AF4890F8B80028B1AD4890F813
:100D7000B70008B900F0F2FE10BD10B50024A94874
:100D800090F8B400012801D1204610BD00F0DAFE31
:100D900004460CB12046F8E70120FFF7D0FF002001
:100DA000A04981F8B70081F8B800FFF7C4FF05201B
:100DB000FFF796FFFFF7CEFC01209A4981F8B400B7
:100DC0002046E2E710B586B00446002C1FD0012C67
:100DD0001DD098480068002813D1E320974998A2B5
:100DE000AFF25C23CDE90310CDE9013200900B4650
:100DF000AFF24822AFF228210020FFF777FD00BFB5
:100E0000FEE7E3228D498EA08A4B1B6898478548F0
:100E100080F8B54006B010BD0EB50120FFF7D2FF37
:100E200091A093A1DA229C4BCDE900210290AFF270
:100E30008422AFF264210320FFF758FD0EBD7948EC
:100E400090F8B9007047774890F8B500704730B512
:100E500085B004460D46052C21DD76480068002843
:100E600015D14FF486708D49AFF20032AFF2E8230E
:100E7000CDE90310CDE9013200900B46AFF2D42248
:100E8000AFF2B4210020FFF731FD00BFFEE74FF4C1
:100E900086728249AFF22C30664B1B6898476148D6
:100EA0009C3040F8245005B030BD10B504461022E7
:100EB00021465C48163003F0DBFD10BD10B504463A
:100EC000142221465748401C03F0D2FD10BD70B5D6
:100ED00086B006460C461546052E21DD55480068AD
:100EE000002815D140F219106D49AFF28032AFF2EF
:100EF0006833CDE90310CDE9013200900B46AFF223
:100F00005432AFF234310020FFF7F0FC00BFFEE7AF
:100F100040F219126249AFF2AC30464B1B68984759
:100F20003046FFF7DDFE2046FFF7C8FF2846FFF7F3
:100F3000BCFF06B070BD70B586B006460D46052DE7
:100F400021DD3C480068002815D140F27710554952
:100F5000AFF2E832AFF2D033CDE90310CDE9013280
:100F600000900B46AFF2BC32AFF29C310020FFF78D
:100F7000BDFC00BFFEE740F277124A49AFF21440D1
:100F80002C4B1B689847002E21D12A480068002866
:100F900015D14FF4BC704349AFF2C032AFF21843E1
:100FA000CDE90310CDE9013200900B46AFF20442C7
:100FB000AFF2E4310020FFF799FC00BFFEE74FF4E9
:100FC000BC723849AFF2EC301A4B1B6898470024CA
:100FD000144890F8B40008B906B070BD00F0BDFD2B
:100FE000002463E0C4EBC40000EB04110D4827307B
:100FF0000844807D012857D1C4EBC40000EB0412E3
:10100000084827301044411C1422304603F04DFD9F
:1010100000B94DE048E00000256C6400B0010020FC
:1010200029000000F40000201B5B306D0000000070
:101030000D0A000064000020B5590008805900081E
:1010400028656E61626C6564203D3D2066616C734D
:101050006529207C7C2028656E61626C6564203D7A
:101060003D20747275652900322E322E300000004A
:10107000456173794C6F67676572205625732069E7
:101080007320696E697469616C697A652073756330
:10109000636573732E0000007559000898590008A5
:1010A000A5590008C9590008601CC4B2052C99DB79
:1010B00000BF052C22DA052D19D10021C4EBC40094
:1010C00000EB0412FE4810448175C4EBC40101EB2F
:1010D0000412FB491144481C152103F0ACFC00210B
:1010E000C4EBC40000EB0412F548815431E0C4EBBA
:1010F000C40000EB0411F24845542AE0052D28D025
:10110000002423E0C4EBC40000EB0411EC480844C5
:10111000807DC8B9C4EBC40101EB0412E849114455
:10112000481C1422314603F0A3FCC4EBC40000EBBE
:101130000411E34845540121C4EBC40000EB041240
:10114000DF481044817503E0601CC4B2052CD9DB74
:1011500000BFFFF720FB00BF3EE70FB438B5002506
:10116000D748273890F8B50010B938BC5DF814FBA3
:1011700005A80090FFF751FB4FF48061D148009B18
:10118000049A03F069FF0446002C04DBB4F5806F79
:1011900001DC254601E04FF480652946C94800F08E
:1011A000D3FCFFF7F8FA0020009000BFDDE7C64946
:1011B00008607047F0B585B00546002D1ED1C248C5
:1011C0000068A0B940F2D720C049C1A2AFF248637D
:1011D000CDE90310CDE9013200900B46AFF2346245
:1011E000AFF214610020FFF781FB00BFFEE740F281
:1011F000D722B649B6A0B44B1B689847B0482738E9
:1012000090F89C0000F0010000281FD1AE48006853
:10121000002814D140F2D920AC49AEA2AFF29863B5
:10122000CDE90310CDE9013200900B46AFF28462A4
:10123000AFF264610020FFF759FB00BFFEE740F208
:10124000D922A249A3A0A04B1B6898479C482738E5
:1012500090F8A00000F0010000281FD19A48006813
:10126000002814D140F2DA209849A8A2AFF2E8632E
:10127000CDE90310CDE9013200900B46AFF2D46204
:10128000AFF2B4610020FFF731FB00BFFEE740F290
:10129000DA228E499DA08C4B1B68984788482738D6
:1012A00090F8A40000F0010000281FD186480068D3
:1012B000002814D140F2DB208449A1A2AFF2387398
:1012C000CDE90310CDE9013200900B46AFF2247254
:1012D000AFF204710020FFF709FB00BFFEE740F208
:1012E000DB227A4996A0784B1B68984774482738C8
:1012F00090F8A80000F0010000281FD17248006893
:10130000002814D14FF4377070499AA2AFF2887355
:10131000CDE90310CDE9013200900B46AFF27472B3
:10132000AFF254710020FFF7E1FA00BFFEE74FF47F
:10133000377266498FA0644B1B689847604827380E
:1013400090F8AC0000F0010000281FD15E48006852
:10135000002814D140F2DD205C4993A2AFF2D8738B
:10136000CDE90310CDE9013200900B46AFF2C47213
:10137000AFF2A4710020FFF7B9FA00BFFEE740F218
:10138000DD22524988A0504B1B6898474C482738AB
:1013900090F8B00000F0010000281FD14A48006812
:1013A000002814D140F2DE2048498CA2AFF6280371
:1013B000CDE90310CDE9013200900B46AFF61402DF
:1013C000AFF2F4710020FFF791FA00BFFEE740F2A0
:1013D000DE223E4981A03C4B1B6898470226002430
:1013E00012E08C4951F8240003F04EFB0746A9197E
:1013F000884A52F824003A4603F057FB10B960B20D
:1014000005B0F0BD601CC4B2062CEADB4FF0FF3023
:10141000F6E72DE9F04385B005460C461646002751
:10142000B846002D1ED128480068A0B940F205300A
:10143000794927A2AFF6B003CDE90310CDE9013217
:1014400000900B46AFF69C02AFF67C010020FFF740
:101450004DFA00BFFEE740F205326F491CA01A4B5F
:101460001B689847002E1ED117480068A0B940F2AB
:101470000630694969A2AFF6F003CDE90310CDE962
:10148000013200900B46AFF6DC02AFF6BC01002043
:10149000FFF72CFA00BFFEE740F206325E495FA07C
:1014A000094B1B689847062C07DB07480068002893
:1014B00004D140F207305849B4E0CCE0C4E0000069
:1014C0001B010020B001002064000020155A000814
:1014D0006C6F6700656C6F672E656E61626C65642A
:1014E0005F666D745F7365745B454C4F475F4C5628
:1014F0004C5F4153534552545D202620454C4F4785
:101500005F464D545F4C564C00000000656C6F67A1
:101510002E656E61626C65645F666D745F73657481
:101520005B454C4F475F4C564C5F4552524F525DA6
:10153000202620454C4F475F464D545F4C564C008B
:10154000656C6F672E656E61626C65645F666D7455
:101550005F7365745B454C4F475F4C564C5F57411A
:10156000524E5D202620454C4F475F464D545F4C00
:10157000564C0000656C6F672E656E61626C656429
:101580005F666D745F7365745B454C4F475F4C5687
:101590004C5F494E464F5D202620454C4F475F46E5
:1015A0004D545F4C564C0000656C6F672E656E6144
:1015B000626C65645F666D745F7365745B454C4F08
:1015C000475F4C564C5F44454255475D20262045B9
:1015D0004C4F475F464D545F4C564C00656C6F67EF
:1015E0002E656E61626C65645F666D745F736574B1
:1015F0005B454C4F475F4C564C5F564552424F53EC
:10160000455D202620454C4F475F464D545F4C5664
:101610004C0000004C000020235A00087461675FF2
:101620006C656E0086A2AFF6A023CDE90310CDE96C
:10163000013200900B46AFF68C22AFF66C210020F1
:10164000FFF754F900BFFEE740F2073283497CA060
:10165000834B1B689847834810F8240000F0020071
:1016600000281FD17E480068002814D140F20930BC
:101670007A497DA2AFF6F023CDE90310CDE901321E
:1016800000900B46AFF6DC22AFF6BC210020FFF73E
:101690002DF900BFFEE740F20932704972A0704B8D
:1016A0001B6898477B4951F8240003F0EDF9A91C09
:1016B00000EB0109784951F8240003F0E5F909EB42
:1016C000000714222021384603F0E5F9B0F10008A4
:1016D00003D0A8EB0700306000E00027384605B0D3
:1016E000BDE8F0832DE9FF5F83460F4691469A4699
:1016F00000240020029003905A489C3890F8B500CE
:1017000008B9BDE8FF9F57489C380078042800DAE4
:10171000F7E754499B39584603F098F900B9F0E7C8
:10172000FFF77BF8002584E0E819401E5B465BA2CA
:101730004FF48061CDE900505E4803F075FC8046AF
:10174000B8F1000F05DBB8F5806F02DC1FFA88F4F2
:1017500001E04FF4806400262AE0A819504508DA19
:10176000A81919F8003054A2082102A803F05CFC63
:1017700004E0082252A102A803F07AF94D480119A9
:1017800002AA204600F0A2F8204484B2701CC117BF
:1017900000EB5171C910A0EBC10139B945480119DD
:1017A00043A2204600F092F8204484B2701C86B216
:1017B000BE42D2DB3F48011942A2204600F086F823
:1017C000204484B200261DE0A819504518DAA81953
:1017D00019F8000020385F2803D2A81919F8000072
:1017E00000E02E20034638A2082102A803F01CFCCA
:1017F0003048011902AA204600F068F8204484B25B
:10180000701C86B2BE42DFDBA01CB0F5806F01D930
:1018100040F2FE3427480119AFF2EC72204600F086
:1018200055F8204484B22146224800F08DF9E81989
:1018300085B25545FFF678AFFEF7ADFF00BF60E714
:101840006C766C203C20454C4F475F4C564C5F54A7
:101850004F54414C5F4E554D00000000235A000884
:101860006400002090010020656C6F672E656E613A
:10187000626C65645F666D745F7365745B6C766CD7
:101880005D202620454C4F475F464D545F544147ED
:10189000000000004C00002034000020442F484588
:1018A000582025733A20253034582D253034583AA5
:1018B00020000000B0010020253032582000000038
:1018C000202020002020000025630000F0B585B016
:1018D00006460D4614462746002D1AD17948006861
:1018E000002810D12C20784978A279A3CDE90310E3
:1018F000CDE9013200900B467EA289A10020FEF7BF
:10190000F5FF00BFFEE72C226F4970A06D4B1B68EE
:101910009847002C19D16B48006880B92D206A497E
:1019200081A26BA3CDE90310CDE9013200900B46F3
:1019300070A27BA10020FEF7D9FF00BFFEE72D2299
:10194000614979A05F4B1B6898470AE03046761CD6
:10195000B0F5806F04D214F8010B05F8010B00E01C
:1019600002E020780028F1D100BFE01B05B0F0BDF7
:101970002DE9F04186B005460C4690460226002728
:10198000002D1AD14F480068002810D14620674921
:1019900067A24FA3CDE90310CDE9013200900B46B9
:1019A00054A25FA10020FEF7A1FF00BFFEE7462280
:1019B0005E495FA0434B1B689847002C19D14148F2
:1019C000006880B9472059495BA241A3CDE90310C3
:1019D000CDE9013200900B4646A251A10020FEF74E
:1019E00085FF00BFFEE74722504953A0354B1B68D7
:1019F00098470DE014F8010B05F8010B7F1CB74266
:101A000006D3A01B32464DA103F04FF800B904E005
:101A1000B8F10000A8F10108ECD100BF384606B0CB
:101A2000BDE8F0812DE9F04186B004460D469046B0
:101A300026462F46002C1AD122480068002810D1D3
:101A400060203F4921A222A3CDE90310CDE9013254
:101A500000900B4627A232A10020FEF747FF00BFEF
:101A6000FEE76022364919A0164B1B689847002DE7
:101A700019D11448006880B9612031492AA214A301
:101A8000CDE90310CDE9013200900B4619A224A143
:101A90000020FEF72BFF00BFFEE76122284922A0AD
:101AA000084B1B68984703E017F8010B06F8010B79
:101AB000B8F10000A8F10108F6D1204606B0BDE853
:101AC000F081000064000020315A00086473740043
:101AD00028257329206861732061737365727420EF
:101AE0006661696C65642061742025733A256C64B5
:101AF0002E0000002E2E5C436F6D706F6E656E744D
:101B0000735C656173796C6F676765725C73726330
:101B10005C656C6F675F7574696C732E63000000A1
:101B2000656C6F6700000000737263003D5A000827
:101B30006C696E65000000006C6F67000D0A0000A4
:101B4000485A00080020704770B504460D462246EA
:101B5000294606A003F058FA70BD7047704705A0EB
:101B6000704706A0704708A070470000252E2A7312
:101B70000000000031303A30380000007069643AEB
:101B800031303038000000007469643A32340000AB
:101B900008B50121242000F013FC4FF48070ADF84B
:101BA000000010208DF8030003208DF80200694624
:101BB000094800F049F94FF48071074800F0F1F945
:101BC0000420ADF800006946044800F03DF9042106
:101BD000024800F0E6F908BD000801400014014089
:101BE00000BF704700BF5A4A128802F04002002A24
:101BF000F9D0C2B2564B1B1D1A80704710B586B083
:101C00000446012144F2040000F0DAFB504800F0E1
:101C10003BFC4FF40070ADF8140003208DF8160063
:101C200018208DF8170005A94A4800F00DF94FF467
:101C30008060ADF8140004208DF8170005A9454810
:101C400000F002F925208DF8000003208DF8010036
:101C50008DF8020001208DF80300684600F01DFE9B
:101C600001940020ADF80800ADF80A00ADF80C00B2
:101C7000ADF810000C20ADF80E0001A9344800F0BA
:101C800046FC012240F22551314800F0D8FC0121E8
:101C90002F4800F0C8FC06B010BD10B540F2255129
:101CA0002B4800F0B1FD10B3294800F02DFDC4B25F
:101CB0002948008800F40040C8B92748008800F48B
:101CC000804060B10A2C03D000202349088020E026
:101CD0002148008840F400401F49088019E00D2C7D
:101CE00006D11D48008840F480401B49088010E060
:101CF00019480088C0F30D0018490C541648008894
:101D0000401C1549088008460088C72801DD0020CE
:101D1000088010BD2DE9F04107460D461646002407
:101D200010E0295D0A4800F0EBFC00BF8021084864
:101D300000F054FD0028F9D009480068401C08490B
:101D40000860641CB442ECD305480068BDE8F0812B
:101D500000380140000801406C000020B005002060
:101D6000700000200648804706480047FEE7FEE76F
:101D7000FEE7FEE7FEE7FEE7FEE7FEE7FEE7FEE73B
:101D8000DF0200083101000810B50446CC48844247
:101D900008D10121042000F02DFB0021042000F0D7
:101DA00029FB46E0C748844208D10121082000F001
:101DB00021FB0021082000F01DFB3AE0C2488442CC
:101DC00008D10121102000F015FB0021102000F0A7
:101DD00011FB2EE0BD48844208D10121202000F0F3
:101DE00009FB0021202000F005FB22E0B8488442D6
:101DF00008D10121402000F0FDFA0021402000F030
:101E0000F9FA16E0B348844208D10121802000F09D
:101E1000F1FA0021802000F0EDFA0AE0AE48844299
:101E200007D10121801500F0E5FA0021A01500F08E
:101E3000E1FA10BD10B50121084600F0DBFA0021DF
:101E4000012000F0D7FA10BD2DE9F041024600252F
:101E50000026002000230024002791F803C00CF086
:101E60000F0591F803C00CF0100CBCF1000F03D06B
:101E700091F802C04CEA050591F800C0BCF1000FD2
:101E800031D0146800202BE04FF0010C0CFA00F365
:101E9000B1F800C00CEA03069E4220D183004FF047
:101EA0000F0C0CFA03F7BC4305FA03FC4CEA0404DC
:101EB00091F803C0BCF1280F06D14FF0010C0CFAC9
:101EC00000FCC2F814C00AE091F803C0BCF1480F4E
:101ED00005D14FF0010C0CFA00FCC2F810C0401CF8
:101EE0000828D1D31460B1F800C0BCF1FF0F34DD75
:101EF000546800202EE000F1080C4FF0010808FAA9
:101F00000CF3B1F800C00CEA03069E4221D1830015
:101F10004FF00F0C0CFA03F7BC4305FA03FC4CEA34
:101F2000040491F803C0BCF1280F05D100F1080C9E
:101F300008FA0CF8C2F8148091F803C0BCF1480FFD
:101F400007D100F1080C4FF0010808FA0CF8C2F8AC
:101F50001080401C0828CED35460BDE8F0814FF6B5
:101F6000FF710180022181700421C1707047024617
:101F7000002093680B400BB1012000E00020704767
:101F80000146886880B2704702460020D3680B4043
:101F90000BB1012000E0002070470146C86880B204
:101FA000704701617047416170470AB1016100E00B
:101FB00041617047C16070474FF480320A438261CB
:101FC0008161826182698269704702460020434BC9
:101FD00018684FF68073184040EA021008433F4BE0
:101FE000186070473E49C8617047F0B50A46002343
:101FF00000240021002500F00046B6F1004F02D178
:10200000364EF16901E0354E7168C0F3034583B285
:1020100000F44016B6F5401F08D121F070612F4E34
:10202000766826F070662D4F7E6012E000F4801610
:10203000B6F5801F06D1032606FA05F4A14341F048
:10204000706106E0460D360103FA06F6B14341F031
:10205000706122B1460D360103FA06F6314300F0F5
:102060000046B6F1004F02D11C4EF16101E01B4E5B
:102070007160F0BD30B500228B071C0F0F2303FAEF
:1020800004F2164B08338C1053F824309343134C4E
:1020900008348D1044F8253023468C1053F8243032
:1020A0008C07240F00FA04F423430C4C08348D10E1
:1020B00044F8253030BD0A49DC3108607047000023
:1020C00000080140000C01400010014000140140D4
:1020D00000180140001C01400020014000000140A8
:1020E00000002042DF48006840F00100DD49086040
:1020F00008464068DC490840DA49486008460068FC
:10210000DA490840D74908600846006820F4802072
:1021100008600846406820F4FE0048604FF41F0045
:1021200088607047CF49096821F48031CD4A116039
:102130001146096821F480211160B0F5803F03D079
:10214000B0F5802F0ED106E0C649096841F4803110
:10215000C44A116007E0C349096841F4A021C14A9B
:10216000116000E000BF00BF704710B501460022BB
:10217000002300204A11012A02D1BA4C236806E04C
:10218000022A02D1B74C236A01E0B64C636A01F01F
:102190001F02012494401C400CB1012000E00020EB
:1021A00010BD38B5002000900024002500BF31206C
:1021B000FFF7DBFF05460098401C00900098B0F543
:1021C000A06F01D0002DF2D03120FFF7CEFF08B173
:1021D000012400E00024204638BD01460020A14A29
:1021E000106820F0F80040EAC10010607047A04974
:1021F00008607047024600209A4B586820F47C1013
:1022000042EA01031843974B5860704798490866A3
:10221000704701460020934A506820F003000843AD
:10222000506070478F48406800F00C0070470146CE
:1022300000208C4A506820F0F0000843506070473E
:1022400001460020874A506820F4E060084350604F
:10225000704701460020834A506820F4605040EAED
:10226000C1005060704729B17E4A527A02437D4BCB
:102270005A7204E07B4A527A82437A4B5A72704710
:102280007B49D8310860704701460020754A506884
:1022900020F440400843506070470021714A2032CA
:1022A0001170704A82F82010012802D004280AD147
:1022B00004E001216B4A2032117005E00521694AD2
:1022C0002032117000E000BF00BF7047694908600C
:1022D00070476449096A0143624A1162704765495F
:1022E00044390860704730B50021002200240023E3
:1022F0005C4D6D6805F00C0121B1042905D0082959
:1023000023D105E05C4D056022E05B4D05601FE0D8
:10231000544D6D6805F47012524D6D6805F48034AB
:10232000022505EB92421CB9544D554305600BE064
:102330004C4D6D6805F400351DB1504D5543056099
:1023400002E04D4D5543056002E04B4D056000BF76
:1023500000BF444D6D6805F0F0010909484D6B5C04
:102360000568DD4045603F4D6D6805F4E061090A90
:10237000434D6B5C4568DD4085603A4D6D6805F402
:102380006051C90A3E4D6B5C4568DD40C560354D06
:102390006D6805F44041890B3A4D6B5CC568B5FB2F
:1023A000F3F5056130BD29B12E4A526902432D4B28
:1023B0005A6104E02B4A526982432A4B5A617047A2
:1023C00029B1284A92690243264B9A6104E0254AC2
:1023D00092698243234B9A61704729B1214AD2699D
:1023E0000243204BDA6104E01E4AD26982431D4B4E
:1023F000DA61704729B11B4AD2680243194BDA608F
:1024000004E0184AD2688243164BDA60704729B15B
:10241000144A12690243134B1A6104E0114A12690B
:102420008243104B1A617047124940390860704767
:102430000F49C86470470B49C87170470948406A22
:1024400040F0807007494862704701460020054A05
:1024500092680A400AB1012000E00020704701495B
:1024600088727047001002400000FFF8FFFFF6FE80
:10247000000042428004424200127A0000093D00FE
:10248000740000208400002010B50446FB488442FC
:1024900009D101218803FFF7ADFF00214FF48040EF
:1024A000FFF7A8FF32E0F648844209D10121480431
:1024B000FFF7ADFF00214FF40030FFF7A8FF25E044
:1024C000F048844209D101218804FFF7A0FF0021D0
:1024D0004FF48020FFF79BFF18E0EB48844209D1BE
:1024E0000121C804FFF793FF00214FF40020FFF7FC
:1024F0008EFF0BE0E548844208D101210805FFF773
:1025000086FF00214FF48010FFF781FF10BD2DE9F9
:10251000F04786B005460E460024A24600BFA146FD
:102520000027B08900B100BF2F462C8A4CF6FF70FF
:102530000440F08804432C82AC894EF6F31004402A
:10254000B08831890843718908430443AC81AC8A5F
:102550004FF6FF400440B0890443AC8201A8FFF766
:10256000C2FEC648874202D1DDF810A001E0DDF8C6
:102570000CA0A88900F4004040B10AEBCA0000EBAF
:102580000A1031684900B0FBF1F807E00AEBCA0015
:1025900000EB0A1031688900B0FBF1F86420B8FB49
:1025A000F0F004012009642101FB1089A88900F4DE
:1025B000004040B1322000EBC900B0FBF1F000F068
:1025C0000700044308E0322000EB09106421B0FB4F
:1025D000F1F000F00F0004432C8106B0BDE8F08755
:1025E0004FF41651016000218180C18001810C21CE
:1025F000418100218181704710B502460020108A78
:102600004FF2FF0318400B884C8823438C882343E8
:10261000CC8823431843108210BD002101804180E3
:102620008180C180704721B1828942F40052828149
:1026300004E082894DF6FF731A4082817047F0B53D
:102640000346002400260025002040F66A17B94200
:1026500000D100BF1846C1F3421401F01F06012744
:1026600007FA06F5012C01D10C3004E0022C01D14F
:10267000103000E014301AB107682F43076002E001
:102680000768AF430760F0BD1AB1838A0B438382AA
:1026900002E0838A8B4383827047028A4FF6F0738D
:1026A0001A400282028A0A430282704782894FF2EC
:1026B000FF731A40828182890A438281704721B167
:1026C000828942F00202828104E082894FF6FD7322
:1026D0001A4082817047028A4FF6DF731A400282E5
:1026E000028A0A430282704721B1028A42F4804280
:1026F000028204E0028A4BF6FF731A40028270479E
:10270000C1F308028280704701468888C0F3080040
:102710007047818941F0010181817047028BD2B2FB
:102720000283028B42EA012202837047028B02F489
:102730007F420283028B0A430283704721B1828A5F
:1027400042F02002828204E0828A4FF6DF731A4050
:102750008282704721B1828A42F01002828204E0B4
:10276000828A4FF6EF731A408282704721B1828AC3
:1027700042F00802828204E0828A4FF6F7731A4020
:102780008282704721B1828942F40042828103E053
:102790008289C2F30E028281704721B1828A42F49B
:1027A0000062828204E0828A4FF2FF731A408282C2
:1027B0007047828A4FF6FB731A408282828A0A43EC
:1027C0008282704721B1828A42F00202828204E052
:1027D000828A4FF6FD731A408282704702460020BB
:1027E000B1F5007F00D100BF13880B400BB1012071
:1027F00000E00020704701F40072B2F5007F00D1C4
:1028000000BFCA430280704770B50246002400230F
:102810000025002040F66A16B14200D100BFC1F386
:10282000421501F01F03012606FA03F3012D02D120
:102830009689334006E0022D02D1168A334001E02A
:10284000968A33400C12012606FA04F416883440A6
:1028500013B10CB1012000E0002070BD10B50022C2
:10286000002340F66A14A14200D100BF0A120124DD
:102870009440A3B2DC43048010BD00000038014046
:102880000044004000480040004C00400050004020
:1028900031490143314A1160704770B5002100236E
:1028A0000F22C47804B32D4C246804F4E064C4F50A
:1028B000E064210AC1F10403CA40447804FA03F138
:1028C0008478144021430901254C0678A1550478E9
:1028D00004F01F050124AC4005786D11AD0005F131
:1028E000E025C5F8004109E0047804F01F05012443
:1028F000AC401C4D0678761145F8264070BD1A4A4A
:102900000A400243154B1B1F1A60704739B1134A26
:10291000121D12680243114B1B1D1A6006E00F4A7C
:10292000121D126882430D4B1B1D1A60704704284C
:1029300008D14FF0E021096941F004014FF0E02295
:10294000116107E04FF0E021096921F004014FF027
:10295000E0221161704700000000FA050CED00E074
:1029600000E400E080E100E080FFFF1FA048006875
:10297000401C08B9012000E0002020B9CE229DA112
:10298000A6A002F041FB00BF502080F31188BFF3E6
:102990004F8FBFF36F8F00BF00BFFEE7001F4FF0E8
:1029A00080730360001F21F001030360001F9F4B31
:1029B0000360143802602038704700204FF0E02197
:1029C000086188619A4800684FF47A71B0FBF1F0B1
:1029D000401E4FF0E02148610720086170471CB598
:1029E000944C204600780190FF202146087008464C
:1029F000007800909DF8000000F0F0009DF80010B5
:102A0000884201D1012000E0002028B940F21F12C5
:102A100078A182A002F0F8FA9DF8000000F05000C2
:102A20008549087007208549086009E083480068E7
:102A3000401E824908609DF800004006000E00908C
:102A40009DF8000000F080008028EFD07B480068EF
:102A5000C0F10700042801D1012000E0002028B9BE
:102A600040F2331263A16DA002F0CEFA7348006801
:102A7000C0F10700042801D1012000E0002028B99E
:102A80004FF49E725BA165A002F0BEFA6B4800682D
:102A900000026A4908600846008800F4E0600860A7
:102AA0006449019808706648006840F47000644901
:102AB00008600846006840F070400860FFF77DFF3E
:102AC00000204B490860FDF74FFB00201CBD10B5EE
:102AD00047480068B0F57A7F01D1012000E000206E
:102AE00028B940F2631243A14CA002F08DFA10BD48
:102AF00010B500BF502080F31188BFF34F8FBFF394
:102B00006F8F00BF3A480068401C3949086008468A
:102B1000006801280ED14A481C380068C0B208B9C4
:102B2000012000E0002028B940F2731231A13BA03F
:102B300002F06AFA10BD10B52D48006828B94FF4AC
:102B4000BD722CA135A002F05FFA29480068401E32
:102B5000274908600846006820B9002080F31188E2
:102B600000BF00BF10BD10B500BF502080F311881A
:102B7000BFF34F8FBFF36F8F00BF00F0E1FB20B1B9
:102B80004FF080502E491C39086000BF002080F3B0
:102B9000118800BF10BD70B5FDF71CFB0546102D58
:102BA00011D305F1E02090F8F043234800788442E7
:102BB00001DB012000E0002028B940F2BB220DA17A
:102BC00016A002F021FA1E481438006800F4E060F4
:102BD0001A490968884201D8012000E0002028B97C
:102BE00040F2CB2203A10DA002F00EFA70BD00004E
:102BF000880000202E2E5C4672656552544F535C4F
:102C0000706F72745C525644535C41524D5F434D39
:102C1000335C706F72742E63000000004572726F37
:102C2000723A25732C25640D0A0000006D290008F6
:102C30000000002000E400E08C0000209000002054
:102C400020ED00E010B50146B84800E000680368D8
:102C50008B42FBD30246436813448B4204D1436842
:102C60004C682344436001460A464B681344046899
:102C7000A34211D1AE4C03682468A34208D04B682C
:102C80000468646823444B6003681B680B6005E0BC
:102C9000A74B1B680B6001E003680B60884200D003
:102CA000016010BD30B54FF41043A24800F0070496
:102CB0002CB1C01D20F007009E4C041B1B1B0246BC
:102CC0009A4C22600024994D6C60D018083820F08E
:102CD0000700974C20600024954D2D686C60944D42
:102CE0002D682C601146441A4C60914C24680C608D
:102CF000914D4C682C60914D4C682C604FF0004415
:102D00008F4D2C6030BD2DE9F04104464FF0000896
:102D100000F00CFD8648006808B9FFF7C3FF88483B
:102D200000682040002873D114B304F10800A042C9
:102D30001ED9083404F00700D8B104F00700C0F130
:102D400008002044A04211D904F00700C0F1080097
:102D5000044404F0070008B9012000E0002040B955
:102D60009C2278A180A002F04FF902E0002400E04C
:102D70000024002C4CD071480068844248D86B4E27
:102D80003046056801E02E462D686868A04202D2F0
:102D900028680028F7D166480068854238D0306836
:102DA00000F10808286830606868001B102813D9F3
:102DB0002F1907F0070008B9012000E0002020B912
:102DC000CF2260A168A002F01FF96868001B78603C
:102DD0006C603846FFF736FF584968680968081A7A
:102DE000564908600846006853490968884203D27A
:102DF00052480068504908605149686809680843AA
:102E00006860002028605C480068401C5A490860DF
:102E100000F094FB08F0070008B9012000E0002052
:102E200028B94FF4887247A14FA002F0EDF8404650
:102E3000BDE8F08170B506463546002E3AD0083D13
:102E40002C463F4960680968084008B1012000E04D
:102E5000002028B94FF492723AA143A002F0D4F8AE
:102E6000206808B9012000E0002028B940F22512AE
:102E700034A13DA002F0C8F83149606809680840F3
:102E8000C0B12068B0B92E496068096888436060A5
:102E900000F04CFC2949606809680844274908602B
:102EA0002046FFF7CFFE35480068401C33490860D4
:102EB00000F044FB70BD2148006870471E48006860
:102EC000704770472DE9F04104464FF00008002696
:102ED000771E00F02BFC154805687DB100BF08F196
:102EE00001086868B04200D96E686868B84200D2CC
:102EF0006F682D680E4800688542F0D100F01EFB17
:102F00006660A760C4F80C80FFF7F2FD0B4800680C
:102F1000206019480068606118480068A061064890
:102F200000682061FFF707FEBDE8F08194000020F3
:102F30009C00002078060020A4000020A0000020B3
:102F4000B00000202E2E5C4672656552544F535CD3
:102F5000706F72745C4D656D4D616E675C68656124
:102F6000705F342E630000004572726F723A2573F1
:102F70002C25640D0A000000A8000020AC000020F1
:102F800000F1080141604FF0FF31816000F108015C
:102F9000C16001610021016070470021016170473B
:102FA00042684A6093688B609368596091600861D9
:102FB00003685B1C0360704710B502460B685C1C1D
:102FC0000CB9106907E002F1080000E040684468AD
:102FD00024689C42FAD944684C604C68A1608860BF
:102FE00041600A611468641C146010BD01460A69DE
:102FF000D1E901309860D1E90103586050688842F6
:1030000001D188685060002008611068401E10607F
:103010001068704710B5002407E004EB8401FE4AF5
:1030200002EB8100FFF7ACFF641C202CF5D3FB48BA
:10303000FFF7A6FFFA48FFF7A3FFFA48FFF7A0FF44
:10304000F948FFF79DFFF948FFF79AFFF348F84961
:103050000860F348F749086010BD10B50446FFF753
:1030600047FDF5480068401CF3490860F3480068D4
:1030700040B9F24804600846006801280DD1FFF706
:10308000C9FF0AE0EE48006838B9EC480068C06A39
:10309000E16A884201D8E9480460EA480068401CB7
:1030A000E849086094F82C1001208840E649096836
:1030B0000843E5490860E16A01EB8101D64A02EB69
:1030C00081014868A0608268E260211D82685160C9
:1030D0008160E16A01EB8101CF4A02EB810262610A
:1030E000E16A01EB8101CC4A52F82110491CE26AE5
:1030F00002EB8202C84B43F82210FFF71CFDD048B8
:10310000006868B1CD480068C06AE16A884207D2A9
:103110004FF08050CD490860BFF34F8FBFF36F8FE2
:1031200010BD2DE9FF5F81460E469246DDE90E7B1C
:10313000109CAAF10100216B01EB800828F0070820
:1031400008F0070008B9012000E0002028B94FF47A
:103150005872BFA1C4A001F057FF86B1002507E057
:10316000715D04F134004155705D00B902E06D1CE1
:10317000102DF5D300BF00214320015502E00020AF
:1031800084F83400202F01D2012000E0002028B96B
:1031900040F29732AEA1B4A001F036FF202F00D349
:1031A0001F27E762201DFFF7F8FE04F11800FFF764
:1031B000F4FE2461C7F12000A06164620020606415
:1031C00084F8480049464046039AFFF7E7FB206031
:1031D000BBF1000F01D0CBF80040BDE8FF9F2DE907
:1031E000FF4F85B0804689461746DDE912ABB8002F
:1031F000FFF789FD064656B14C20FFF784FD0446D3
:103200000CB1266304E03046FFF714FE00E0002412
:103210007CB10020CDE900ABCDE902403A464946F9
:103220004046089BFFF77DFF2046FFF716FF01256C
:1032300001E04FF0FF35284609B0BDE8F08F10B52A
:103240000446206BFFF7F6FD2046FFF7F3FD10BDA7
:1032500077480068006808B9012000E0002020B12C
:103260004FF0FF308449086005E071480068C0688D
:10327000006881490860704770B50546FFF738FC63
:1032800015B96E48006800E028460446201DFFF787
:10329000ADFE78B9E06A00EB80005F4951F820008C
:1032A00040B994F82C10012088406749096881438F
:1032B00065480160A06A18B104F11800FFF796FE96
:1032C00060480068401C5F4908605C4800688442B0
:1032D00009D1211D5448FFF763FE68480068401C6F
:1032E0006649086006E054480068401E524908607C
:1032F000FFF7AEFFFFF71FFC50480068844202D082
:103300002046FFF79CFF4E480068C0B14B4800685C
:10331000844214D15A48006808B9012000E0002016
:1033200028B940F2DC424AA14FA001F06DFE4FF0F7
:10333000805046490860BFF34F8FBFF36F8F70BD59
:103340002DE9F0414FF000084D480068002861D198
:103350004C480068451C4B480560EDB9344800688E
:10336000006808B9012000E0002028B940F6C72213
:1033700037A13DA001F048FE2D4807682D480068A0
:103380002B4908602B4807603F480068401C3E49B5
:103390000860FFF75DFF00BF37480068854275D3BE
:1033A00000BF23480068006808B9012000E0002041
:1033B00020B14FF0FF3030490860A4E01C4800689D
:1033C000C068C4686668B54202D22B4806609AE0BD
:1033D0006069D4E902128A60D4E902214A60211DA1
:1033E00042688A4201D1E16841600022626101685D
:1033F000491E0160A06A70B1A06AD4E907128A6010
:10340000D4E907214A6004F1180142688A423FD199
:10341000216A3CE08AE041E078960020F89800209C
:103420000C99002020990020349900204899002010
:10343000B8000020BC000020C4000020B400002020
:10344000D0000020E0000020CC00002004ED00E0CF
:103450002E2E5C4672656552544F535C7372635CEA
:103460007461736B732E63004572726F723A2573C9
:103470002C25640D0A000000E4000020C00000209C
:10348000F0000020C8000020DC0000203CE041608B
:103490000022A2620168491E016000BF94F82C104E
:1034A00001208840F74909680843F6490860E16A45
:1034B00001EB8101F44A02EB81014868A060826857
:1034C000E260211D826851608160E16A01EB810147
:1034D000ED4A02EB81026261E16A01EB8101EA4A95
:1034E00052F82110491CE26A02EB8202E64B43F8D3
:1034F0002210E649E06A0968C96A8842FFF451AFC0
:103500004FF001084DE700BFE0480068C06A00EBDB
:103510008000DD4951F82000012801D94FF0010851
:10352000DB48006808B14FF0010804E0D9480068A2
:10353000401CD84908604046BDE8F08170B50024C1
:103540000026D548006838B940F6B302AFF2001142
:10355000AFF2EC0001F058FDFFF7CAFACE48006860
:10356000401ECD4908600846006800287ED1CB483F
:10357000006800287AD05BE0C948C068C468A06AC7
:10358000D4E907128A60D4E907214A6004F11801DE
:1035900042688A4201D1216A41600022A262016828
:1035A000491E01606069D4E902128A60D4E90221EF
:1035B0004A60211D42688A4201D1E16841600022CF
:1035C00062610168491E016094F82C100120884056
:1035D000AC4909680843AB490860E16A01EB810125
:1035E000A94A02EB81014868A0608268E260211D5F
:1035F000826851608160E16A01EB8101A24A02EBBD
:1036000081026261E16A01EB81019F4A52F8211057
:10361000491CE26A02EB82029B4B43F822109B4951
:10362000E06A0968C96A884202D3012098490860A3
:103630009B48006808B9012000E0002000289BD0CA
:103640000CB1FFF705FE9348056865B100BFFFF7B1
:1036500077FE10B101208E4908606D1E002DF6D155
:1036600000208C4908608A48006800E008E038B112
:10367000012630078B490860BFF34F8FBFF36F8F70
:10368000FFF759FA304670BD2DE9F04105460E4668
:10369000854807687D480068001DFFF7A7FC50B902
:1036A0007A48006890F82C10012088407549096814
:1036B000814374480160681CD8B9D6B17B49486819
:1036C000724909688860714982680968CA606F49EF
:1036D0000968091D826851606C490968091D81608B
:1036E000724A6A4909684A6111460968491C1160B1
:1036F0001AE07C19654800684460BC4207D2634800
:103700000168091D6A480068FFF756FC0CE05F4835
:103710000168091D67480068FFF74EFC66480068AD
:10372000844201D264480460BDE8F0815A480068D0
:10373000401C5949086070472DE9F04704460F4680
:103740004FF000093CB940F2F142AFF2FC21AFF278
:10375000E82001F059FC0FB1012000E0002038B949
:1037600040F2F242AFF21831AFF2043001F04CFCFB
:103770004948006808B9012000E0002038B940F24B
:10378000F342AFF23431AFF2203001F03DFCFFF7ED
:10379000CDFF454806682068C5192068B04207D9A2
:1037A0002068A8420BD9B54209D94FF0010906E0BB
:1037B0002068A84201D8B54201D94FF0010925601F
:1037C000B9F1000F03D0A81B0021FFF75DFFFFF741
:1037D000B5FE8046B8F1000F07D14FF08050314957
:1037E0000860BFF34F8FBFF36F8F4846BDE8F08787
:1037F00070B504460025BCB12748006808B901200F
:1038000000E0002038B940F24952AFF2BC31AFF2CB
:10381000A83001F0F9FBFFF789FF00212046FFF7F0
:1038200033FFFFF78BFE05463DB94FF080501D4931
:103830000860BFF34F8FBFF36F8F70BD2DE9F04766
:1038400007463E463EB940F27552AFF2FC31AFF248
:10385000E83001F0D9FB0D480068864201D1002410
:1038600049E0FFF745F975691248D0F80080104823
:10387000D0F80090FFF75FF9454501D04D451DD1C7
:10388000022438E0CC00002078960020B40000200C
:10389000D8000020D4000020F0000020C400002048
:1038A0002099002004ED00E0C80000204899002085
:1038B000BC000020B8000020E4000020FD48854244
:1038C00012D1B06A70B90324002007E006F1480164
:1038D000095C012901D1022402E0401C0128F5DB2A
:1038E00000BF08E0022406E0F348854200D00DB98D
:1038F000042400E001242046BDE8F08770B50446AA
:10390000FFF7F6F814B9ED48006800E020460646D7
:10391000F56AFFF710F9284670BD2DE9F04105461C
:10392000FFF739F900BF5021EFF3118081F31188BF
:10393000BFF34F8FBFF36F8F00BF044615B9DF4849
:10394000006800E028460746FE6A00BF84F311883D
:1039500000BF3046BDE8F0812DE9F04780460D46B6
:103960004FF00009202D01D2012000E0002038B9DD
:1039700040F21562AFF22851AFF2145001F044FB4F
:10398000202D00D31F25FFF7B3F8B8F1000F02D1A7
:10399000CA48006800E040460446E66AAE426BD082
:1039A000B5420BD9C548006884420DD0C3480068B1
:1039B000C06AA84208D84FF0010905E0BF48006876
:1039C000844201D14FF00109E76AE562A06900F085
:1039D000004010B9C5F12000A06107EB8701B84A8B
:1039E00002EB81016069884201D1012000E00020E2
:1039F000B0B3201DFFF7FAFA30B90120B840B14941
:103A000009688143AF48016094F82C100120884078
:103A1000AC4909680843AB490860E16A01EB8101E0
:103A2000A74A02EB81014868A0608268E260211D1C
:103A3000826851608160E16A01EB8101A04A02EB7A
:103A400081026261E16A01EB81019D4A52F8211015
:103A5000491CE26A02EB8202994B43F8221000BF34
:103A6000B9F1000F07D04FF0805097490860BFF3BD
:103A70004F8FBFF36F8F00BFFFF75DF8BDE8F08792
:103A800010B59248006818B10120914908602FE0F4
:103A900000208F4908608B480068B0FA80F0C0F1C0
:103AA0001F0404EB8400864951F8200008B101206E
:103AB00000E0002038B940F60242AFF26C61AFF28C
:103AC000586001F0A1FA04EB84017D4A02EB810009
:103AD00041684968416000F1080142688A4202D1A8
:103AE0004168496841604168C968744A116000BF13
:103AF00010BD70B50546FEF7FBFF15B96F480068AD
:103B000000E028460446201DFFF770FA78B9E06A05
:103B100000EB80006A4951F8200040B994F82C105D
:103B20000120884067490968814366480160A06AAE
:103B300018B104F11800FFF759FA211D5D48FFF78D
:103B40002FFA002009E004F14801095C012903D1A2
:103B5000002204F148010A54401C0128F3DBFEF75F
:103B6000EAFF5C48006828B1FEF7C2FFFFF770FB70
:103B7000FEF7E1FF51480068844226D155480068AD
:103B8000B8B15248006808B9012000E0002038B9F7
:103B900040F2FD62AFF24871AFF2347001F034FAD6
:103BA0004FF0805048490860BFF34F8FBFF36F8FCD
:103BB0000BE04048006848490968884203D100206A
:103BC0003E49086001E0FFF75BFF70BD70B5054638
:103BD00000262C463DB940F22772AFF28C71AFF24D
:103BE000787001F011FA33496069884201D10120EF
:103BF00000E0002070B13949A06A884201D101205B
:103C000000E0002030B9A06A08B9012000E00020DF
:103C100000B10126304670BD70B505462C463DB951
:103C200040F25172AFF2D871AFF2C47001F0ECF90A
:103C30002248006884425DD0002C5BD0FEF758FF1C
:103C40002046FFF7C3FFA0B3201DFFF7CFF994F87C
:103C50002C10012088401B49096808431949086055
:103C6000E16A01EB8101164A02EB81014868A0601C
:103C70008268E260211D826851608160E16A01EB27
:103C800081010F4A02EB81026261E16A01EB81016D
:103C90000B4A52F82110491CE26A02EB8202084BDF
:103CA00043F822100549E06A0968C96A88421FD3AF
:103CB00016E01DE04899002034990020B40000204F
:103CC00078960020CC00002004ED00E0F0000020F9
:103CD000D8000020D0000020C4000020209900203F
:103CE0004FF08050FB490860BFF34F8FBFF36F8FD9
:103CF000FEF721FF70BD2DE9F0410646002734464E
:103D00003EB94FF4F162AFF6B801AFF6A40001F08E
:103D10007BF9FEF740FF00BF5020EFF3118180F3E5
:103D20001188BFF34F8FBFF36F8F00BF0D46204642
:103D3000FFF74CFF002841D0E7480068002838D141
:103D4000E649E06A0968C96A884203D3012701206D
:103D5000E3490860201DFFF749F994F82C10012071
:103D60008840E04909680843DE490860E16A01EBE0
:103D70008101DD4A02EB81014868A0608268E2604F
:103D8000211D826851608160E16A01EB8101D64AA0
:103D900002EB81026261E16A01EB8101D24A52F8D1
:103DA0002110491CE26A02EB8202CF4B43F8221039
:103DB00004E004F11801CD48FFF7F2F800BF85F3E5
:103DC000118800BF3846BDE8F08110B516E0FEF757
:103DD0008FFEC748C068C468201DFFF707F9C548B3
:103DE0000068401EC3490860C3480068401EC249BD
:103DF0000860FEF7A0FE2046FFF721FABE480068E3
:103E00000028E4D110BD00BFFFF7DFFFB64800680F
:103E10000128F9D94FF08050AE490860BFF34F8FA9
:103E2000BFF36F8FF0E71CB5B44800210B4680222A
:103E3000CDE90010B2A1B448FFF7D1F90446012C36
:103E400015D100BF502080F31188BFF34F8FBFF30F
:103E50006F8F00BF4FF0FF30AC4908600120AC49C4
:103E600008600020AB490860FEF7B9FD0DE0601C5A
:103E700008B1012000E0002038B94FF40462AFF629
:103E80003021AFF61C2001F0BFF8A34800681CBD2C
:103E900010B500BF502080F31188BFF34F8FBFF3E0
:103EA0006F8F00BF00209A490860FEF710FE10BD1A
:103EB00098490868704770B5FEF76DFE0025954873
:103EC0000468204670BD8B480068704770B5044692
:103ED00014B98248006800E0204605463DB940F626
:103EE0005912AFF69421AFF6802001F08DF805F15C
:103EF000340070BD70B504467748006808B90120E9
:103F000000E0002038B940F65422AFF6BC21AFF6ED
:103F1000A82001F079F8FFF709FC804800682044E8
:103F20007E490860FFF70AFB0546284670BD70B55C
:103F300004460D463CB940F61C42AFF6EC21AFF604
:103F4000D82001F061F86548016818312046FFF774
:103F500033F801212846FFF797FB70BD70B5044682
:103F60000D4616463CB940F63642AFF61C31AFF668
:103F7000083001F049F85848006808B1012000E015
:103F8000002038B940F63A42AFF63C31AFF628305F
:103F900001F03AF845F000405049096888616068CE
:103FA0004E490968C8614D49826809680A624B49EF
:103FB0000968183182685160484909681831816080
:103FC000464909688C622168491C216001213046FC
:103FD000FFF75AFB70BD70B50646F068C4683CB97F
:103FE00040F68242AFF69831AFF6843001F00CF81B
:103FF000A06AD4E907128A60D4E907214A6004F173
:10400000180142688A4201D1216A41600022A262FD
:104010000168491E01603048006800283DD1606990
:10402000D4E902128A60D4E902214A60211D426863
:104030008A4201D1E1684160002262610168491E43
:10404000016094F82C100120884026490968084333
:1040500024490860E16A01EB8101234A02EB8101F6
:104060004868A0608268E260211D826851608160BA
:10407000E16A01EB81011C4A02EB81026261E16AA3
:1040800001EB8101184A52F82110491CE26A02EB47
:104090008202154B43F8221010E014494868E06191
:1040A0008268226204F118018268516081600F4ABF
:1040B000A26211460968491C116000BF0749E06A05
:1040C0000968C96A88422BD9012501200449086082
:1040D00027E0000004ED00E0F0000020B400002024
:1040E000D8000020CC0000207896002020990020E5
:1040F00034990020C4000020C0000020E800002007
:1041000049444C4500000000073E0008E400002040
:10411000D0000020C8000020EC000020D4000020C7
:104120000025284670BD70B505460E46F948006862
:1041300008B1012000E0002038B940F6BA42AFF6DD
:10414000F041AFF6DC4000F05FFF46F00040286031
:10415000EC683CB940F6C242AFF60C51AFF6F840FD
:1041600000F052FF2869D5E901219160D5E90112DB
:1041700051604168A94201D1A968416000212961CB
:104180000168491E01606069D4E902128A60D4E9BD
:1041900002214A60211D42688A4201D1E1684160E2
:1041A000002262610168491E016094F82C10012010
:1041B0008840D94909680843D7490860E16A01EB9A
:1041C0008101D64A02EB81014868A0608268E26002
:1041D000211D826851608160E16A01EB8101CF4A53
:1041E00002EB81026261E16A01EB8101CB4A52F884
:1041F0002110491CE26A02EB8202C84B43F82210EC
:10420000C749E06A0968C96A884202D90120C549DC
:10421000086070BD10B504463CB940F6E642AFF602
:10422000D051AFF6BC5000F0EFFEFEF761FCBE4887
:1042300000682060BD4800686060FEF77CFC10BD2F
:10424000B94909680160B94909684160704770B5AA
:1042500005460C463DB940F6FD42AFF60C61AFF69F
:10426000F85000F0D1FE3CB940F6FE42AFF62061B6
:10427000AFF60C6000F0C8FEFEF73AFCAB480368EE
:1042800068681A1A2068401C08B9002619E0A64977
:1042900028680968884206D06868984203D80126D1
:1042A000002020600DE02068904207D92068801A25
:1042B00020602846FFF7C4FF002602E000202060AF
:1042C0000126FEF738FC304670BD01209549086094
:1042D00070479349086870479549096809B90120F2
:1042E00005E08C49096809B9022000E00020704708
:1042F0008B49096888698A490968C96AC1F120013E
:10430000874A1268916170472DE9F04104460F46D3
:1043100016460CB9012000E0002038B941F26622AF
:10432000AFF6D461AFF6C06000F06EFEFEF7E0FBC2
:104330007B480068443050F8240080B90121784857
:1043400000684830015556B13046FFF79DF94FF0EF
:10435000805078490860BFF34F8FBFF36F8FFEF72F
:10436000EAFBFEF7C5FB6E480068443050F8245065
:104370006DB137B100216A480068443040F824101C
:1043800005E0681E66490968443141F824000021AF
:104390006348006848300155FEF7CDFB2846BDE86C
:1043A000F0812DE9F04704460F4690461D46DDF8A2
:1043B00020900CB9012000E0002038B941F2B02271
:1043C000AFF67471AFF6607000F01EFEFEF790FB62
:1043D000534800684830005D02281AD050490968E7
:1043E000443101EB84000168B943016001214C486C
:1043F000006848300155B9F1000F0AD04846FFF770
:1044000043F94FF080504B490860BFF34F8FBFF323
:104410006F8FFEF790FBFEF76BFB2DB140480068F5
:10442000443050F8240028603D4800684830005D62
:10443000022801D0002609E039490968443101EB1E
:104440008400016821EA0801016001260021344846
:10445000006848300155FEF76EFB3046BDE8F08736
:104460002DE9F05F07460D4616469846DDF828A070
:104470004FF0010B0DB9012000E0002030B941F2EE
:1044800008322D4901F1180000F0BEFD37B941F2A4
:104490000932294901F1180000F0B6FD3C46FEF74B
:1044A00027FBBAF1000F05D004F1440050F82500B5
:1044B000CAF8000004F1480010F8059002214155A7
:1044C000B8F1050F3ED2DFE808F03C030D171C00E1
:1044D00004F1440050F82500304304F1440141F850
:1044E00025003EE004F1440050F82500401C04F192
:1044F000440141F8250034E004F1440040F825600F
:104500002FE0B9F1020F19D004F1440040F8256002
:1045100016E00000F0000020CC000020789600207B
:10452000B4000020D8000020DC000020C8000020DB
:10453000D000002004ED00E0503400084FF0000BE4
:104540000FE00EE0FE48006808B9012000E00020FE
:1045500030B941F23E32FB4901F1180000F054FD40
:1045600000BF00BFB9F1010F57D16069D4E9021251
:104570008A60D4E902214A60211D42688A4201D141
:10458000E1684160002262610168491E016094F89F
:104590002C1001208840EC4909680843EA4908606A
:1045A000E16A01EB8101E94A02EB81014868A06000
:1045B0008268E260211D826851608160E16A01EBDE
:1045C0008101E24A02EB81026261E16A01EB810151
:1045D000DE4A52F82110491CE26A02EB8202DB4BF0
:1045E00043F82210A06A08B9012000E0002030B989
:1045F00041F24D32D34901F1180000F005FDD449D4
:10460000E06A0968C96A884207D94FF08050D149E9
:104610000860BFF34F8FBFF36F8FFEF78CFA5846D9
:10462000BDE8F09F2DE9F84F80460D4617469946A4
:10463000DDF828B001200090B8F1000F06D141F25A
:104640008532C04901F1180000F0DEFC0DB90120EF
:1046500000E0002030B941F28632BA4901F1180079
:1046600000F0D2FCFEF797FA444600BF5021EFF36A
:10467000118081F31188BFF34F8FBFF36F8F00BF9D
:104680000646BBF1000F05D004F1440050F82500A8
:10469000CBF8000004F1480010F805A002214155B4
:1046A000B9F1050F29D2DFE809F027030D171C0027
:1046B00004F1440050F82500384304F1440141F866
:1046C000250029E004F1440050F82500401C04F1C5
:1046D000440141F825001FE004F1440040F8257032
:1046E0001AE0BAF1020F04D004F1440040F825703A
:1046F00001E0002000900FE00EE09148006808B94A
:10470000012000E0002030B941F2CD328D4901F1A5
:10471000180000F079FC00BF00BFBAF1010F6DD1A5
:10472000A06A08B9012000E0002030B941F2D83277
:10473000844901F1180000F067FC87480068E8BB75
:104740006069D4E902128A60D4E902214A60211D1D
:1047500042688A4201D1E1684160002262610168D9
:10476000491E016094F82C100120884076490968A0
:10477000084375490860E16A01EB8101734A02EB65
:1047800081014868A0608268E260211D82685160F2
:104790008160E16A01EB81016C4A02EB8102626196
:1047A000E16A01EB8101694A52F82110491CE26A71
:1047B00002EB8202654B43F8221011E0FFE76749E4
:1047C0004868E0618268226204F1180182685160E1
:1047D0008160624AA26211460968491C116000BFEB
:1047E0005B49E06A0968C96A884207D90B9810B129
:1047F00001210B98016001205949086000BF86F330
:10480000118800BF0098BDE8F88F2DE9F0470546F4
:104810000E46904635B941F20C424A4901F1180062
:1048200000F0F2FB0EB9012000E0002030B941F2A7
:104830000D42444901F1180000F0E6FBFEF7ABF928
:104840002C4600BF5021EFF3118081F31188BFF394
:104850004F8FBFF36F8F00BF074604F1480010F879
:10486000069002218155001F50F82600401C04F1DB
:10487000440141F82600B9F1010F73D1A06A08B9CB
:10488000012000E0002030B941F233422D4901F10E
:10489000180000F0B9FB3048006800283DD160697D
:1048A000D4E902128A60D4E902214A60211D4268DB
:1048B0008A4201D1E1684160002262610168491EBB
:1048C000016094F82C10012088401F4909680843B2
:1048D0001D490860E16A01EB81011C4A02EB81017C
:1048E0004868A0608268E260211D82685160816032
:1048F000E16A01EB8101154A02EB81026261E16A22
:1049000001EB8101114A52F82110491CE26A02EBC5
:1049100082020E4B43F8221010E010494868E06113
:104920008268226204F118018268516081600B4A3A
:10493000A26211460968491C116000BF044912E0D7
:10494000C800002050340008CC00002078960020D9
:10495000B400002004ED00E0F000002020990020C9
:10496000D80000200DE0E06A0968C96A884208D9C9
:10497000B8F1000F02D00120C8F80000012027493B
:10498000086000BF87F3118800BFBDE8F0872DE9FC
:10499000F04106460C460CB9012000E0002030B979
:1049A00041F263421E4901F1180000F02DFB16B9D7
:1049B0001C48006800E030460746FEF799F807F10A
:1049C0004800005D022805D1002107F1480001558B
:1049D000012500E00025FEF7AEF82846BDE8F0818D
:1049E0002DE9F04106460C46174616B90D480068F9
:1049F00000E030460546FEF77BF805F1440050F82C
:104A0000248050F82400B84305F1440141F8240003
:104A1000FEF791F84046BDE8F0810000D800002084
:104A200050340008B4000020D2B201E000F8012B9D
:104A3000491EFBD270470022F6E710B513460A461E
:104A400004461946FFF7F0FF204610BD30B5054675
:104A50002A460B4612F8010B13F8014B08B1A0428D
:104A6000F8D01CB1002802D06D1CF1E7284630BDFB
:104A700010B5044604E00B7800F8013B03B1491C73
:104A8000521EF8D2204610BD421C10F8011B00290E
:104A9000FBD1801A7047CBB203E00178994203D072
:104AA000401C521EF9D20020704730B50546002048
:104AB000034600E05B1C934205D2EC5CC85C201A04
:104AC00001D1002CF6D130BD30B50B460146002097
:104AD0002022012409E021FA02F59D4205D303FAC0
:104AE00002F5491B04FA02F52844151EA2F1010241
:104AF000F1DC30BD2DE9F05F0546002092469B4673
:104B000088460646814640241BE0284641464746E3
:104B1000224600F0FAF953465A46C01A914110D382
:104B200011461846224600F0E1F92D1A67EB0108FC
:104B30004F4622460120002100F0D8F917EB00096A
:104B40004E41201EA4F10104DFDC484631462A46CE
:104B50004346BDE8F09F2DE9FE4F804681EA030001
:104B6000C00F0C46009021F0004123F00045B8EB47
:104B70000200A94105D24046214690461C460B46FC
:104B8000024623F00040104347D0270DC7F30A0028
:104B9000C3F30A510290401A019040286BDAC3F324
:104BA000130040F4801B0098924620B10023D2EB02
:104BB000030A63EB0B0B01985946C0F140025046C3
:104BC00000F094F906460D4650465946019A00F009
:104BD000ACF910EB08006141002487EA115284EA25
:104BE000E7731A4340D0009A62B3019A012A4FEA50
:104BF000075215DC001B61EB02014FF0004202EA94
:104C00000752CDE90042001C41F5801132462B4687
:104C100000F0ACF903B0BDE8F08F40462146F9E75B
:104C2000001B61EB0201001C41F5801300185B4181
:104C30002018A2F5001747EB030140EAD570B6191A
:104C40006D4111E06D084FEA360645EAC0754FEA3E
:104C50000752001B61EB0201001C41F5801149085D
:104C60004FEA30000019514132462B4603B0BDE8EF
:104C7000F04F00F06CB90098012240000023D0EB07
:104C8000020263EBE073009821464FEAE074B8EB50
:104C9000000061EB0401E9E783F000435BE781F08A
:104CA000004158E72DE9FE4F81EA030404F0004477
:104CB00021F0004100944FF0000B23F0004350EA34
:104CC00001045ED052EA03045BD0C3F30A54C1F37B
:104CD0000A552C44A4F2F3340194A0FB0254C1F30E
:104CE000130141F48011C3F3130343F4801301FB58
:104CF000024400FB034E840A970A44EA815447EABF
:104D00008357A4FB076802958D0A05FB07854FEAC8
:104D1000932C04FB0C542705029D4FEA065847EAE2
:104D20001637B5EB08056EEB070C870E920E47EAB7
:104D3000811742EA8312A7FB0201B6EB0B0164EB79
:104D400000042B0D43EA0C335E1844EB1C50DA468A
:104D50005146E7FB0201C5F313044FEA0B3343EA64
:104D600014534FEA0432019C43EA0603A4F10C04F5
:104D70000294009CCDE900B400F0F8F803B0BDE85F
:104D8000F08F00200146F9E72DE9F04D81EA030498
:104D900004F0004B21F0004514464FF0000A23F0C8
:104DA000004150EA050220D054EA01021DD0C5F3AB
:104DB0000A570246C5F31303C1F31300C1F30A56A1
:104DC00040F4801543F48013A7EB0608101BD64669
:104DD00008F2FD3873EB050002D308F1010801E089
:104DE00092185B41B8F1000F03DA00200146BDE8DC
:104DF000F08D00204FF48011064684460EE0171B0C
:104E000073EB050705D3121B63EB050306434CEA5E
:104E1000010C49084FEA300092185B4150EA010743
:104E2000EDD152EA030012D082EA040083EA0501C0
:104E3000084305D0101BAB4106D20122002306E037
:104E400000224FF0004302E06FF0010253101AEB12
:104E500006004CEB085110EB0A0041EB0B01BDE8DA
:104E6000F04D00F074B8C1F30A52C1F3130140F2DF
:104E7000FF3341F480119A4202DA00200146704764
:104E800040F233439A42A2F2334202DC524200F033
:104E90003CB800F02BB8000030B5041E71F10004DE
:104EA00004DB4FF00044404264EB0101141E73F137
:104EB000000405DB1C464FF00043524263EB040341
:104EC000994208BF904230BD064C074D06E0E068AD
:104ED00040F0010394E8070098471034AC42F6D341
:104EE000FBF72AF9E85A0008085B0008202A04DBCF
:104EF000203A00FA02F1002070479140C2F12003ED
:104F000020FA03F3194390407047202A04DB203A2B
:104F100021FA02F00021704721FA02F3D040C2F1D9
:104F200020029140084319467047202A06DBCB1720
:104F3000203A41FA02F043EAE07306E041FA02F354
:104F4000D040C2F12002914008431946704710B585
:104F5000141E73F1000408DA401C41F1000192189C
:104F60005B411A4301D120F0010010BD2DE9F04D45
:104F700092469B4611B1B1FA81F202E0B0FA80F29A
:104F800020329046FFF7B2FF04460F4640EA0A007F
:104F900041EA0B0153465A46084313D0114653EADF
:104FA000010019D0C8F140025046FFF7AEFF054698
:104FB0000E46504659464246FFF798FF084305D033
:104FC000012004E020463946BDE8F08D002005436D
:104FD00046EAE0762C4337430A986305E40AA0EBDF
:104FE00008000022FD0A44EA47540A3002D5002096
:104FF0000146E9E7010510196941DDE90845001995
:105000006941BDE8F04DA2E70FB4054B10B503A907
:10501000044A029800F008F910BC5DF814FB000087
:10502000E51B0008680000200FB41CB502460020F4
:1050300007AC00290BD0491ECDE90021054B6A467B
:105040002146069800F0F0F8009A002111701CBC6F
:105050005DF814FB575900087CB5044600201D4636
:10506000164600290BD0491ECDE90041044B6A4683
:105070002946304600F0D8F8009A002111707CBD16
:105080005759000802E008C8121F08C1002AFAD1C7
:1050900070477047002001E001C1121F002AFBD1B8
:1050A000704700002DE9FF5F82B00021DDE9043088
:1050B000020DDDF840B0034318D044F61050A2F2C0
:1050C000FF3242431514119801281FD0A5EB0B00A5
:1050D000401C5FEA000A4FF000064E4FDFF838919F
:1050E000B046504615D5CAF1000413E011980124CA
:1050F0004AA3012801D16FEA0B010298119AC0E975
:105100000031C0E9024206B0BDE8F09FCBF10000DB
:10511000DFE704460021404A491842EB0450CDE93C
:10512000001012E0E00707D032463B4640464946B1
:10513000FFF7B8FD8046894632463B461046194681
:10514000FFF7B0FD06460F466410002CEAD1DDE9FA
:105150000401DDE90023BAF1000F06DAFFF7A2FD32
:1051600042464B46FFF79EFD05E0FFF70DFE424627
:105170004B46FFF709FE04460E460022284BFFF778
:105180008BFE03D84FF0FF30014607E00022254B8D
:1051900020463146FFF7DFFCFFF765FE102409E0EB
:1051A000002C0ADB0A220023FFF7A4FC039B303209
:1051B0001A55641E50EA0102F2D1641C039AC4F12C
:1051C00011031444119A012A03D0012208430DD17E
:1051D0000AE0084304D000204FF0110B119072E751
:1051E000A3EB0B056D1E0DE05B4504DD4FF00002E7
:1051F00005F1010504E003DA4FF00002A5F1010515
:10520000002AECD002981199C0E90231C0E90045AA
:1052100079E70000000014400000F03F300000007B
:105220000000F0430000E03F2DE9FF4F95B09B46A2
:105230008946064600250FE2252877D10024274617
:10524000F84A0121059400E0044316F8013F203B91
:1052500001FA03F01042F7D130782A2811D06FF00C
:105260002F033078A0F13002092A16D8059A44F0AD
:10527000020402EB820203EB42021044761C05900A
:10528000EFE759F8042B0592002A03DA504244F460
:105290000054059044F00204761C30782E2816D174
:1052A00016F8010F44F004042A280DD06FF02F02E5
:1052B0003078A0F13003092B09D807EB870302EB04
:1052C0004303C718761CF3E759F8047B761C307843
:1052D0006C280FD006DC4C2817D068280DD06A281F
:1052E00014D104E0742810D07A280FD10DE044F4D2
:1052F00000140AE044F4801401E044F4401472788D
:10530000824202D104F58014761C761C307866281F
:105310000BD013DC582877D009DC002875D045283D
:10532000F6D04628F4D047281AD19DE118E063282A
:1053300035D0642879D0652812D195E1702873D0D2
:1053400008DC6728F1D069286FD06E280DD06F284F
:1053500006D1B5E073282CD0752875D0782874D084
:105360005A46179990476D1C75E1C4F30250022804
:1053700009D003280DD0D9F8001004280DD00D60F5
:1053800009F1040967E1D9F80010EA17C1E90052F0
:10539000F6E7D9F800100D80F2E70D70F0E719F884
:1053A000041B8DF8001000208DF80100EA46012052
:1053B00003E059F804AB4FF0FF3061074FF00001F4
:1053C00002D40DE008F101018846B9420FDA8045A8
:1053D000F8DB1AF808100029F4D108E008F10101FF
:1053E00088468142FADB1AF808100029F6D10598A0
:1053F0005B46A0EB080721463846179A00F094FA5E
:10540000284400EB080507E04DE029E10DE01AF81B
:10541000010B5A4617999047B8F10108F7D25B463D
:1054200021463846179A13E142E00A220092C4F35B
:1054300002524FF0000A022A08D059F804CB032A7E
:105440004FEAEC710AD00DE029E02AE009F10701EA
:1054500021F00702F2E802C1914609E00FFA8CFC44
:105460004FEAEC71042A03D14FFA8CFC4FEAEC713D
:10547000002907DA0A460021DCF1000C61EB020189
:105480002D2202E0220504D52B228DF804200122D2
:1054900003E0E20701D02022F7E7904659E00A2115
:1054A00002E010220DE010214FF0000A00910BE005
:1054B00010224FF0000A44F004040827009203E091
:1054C00008224FF0000A0092C4F30252022A05D0CB
:1054D00059F804CB0021032A08D009E009F107019B
:1054E00021F00702F2E802C1914605E01FFA8CFCA8
:1054F000042A01D10CF0FF0C4FF00008220728D538
:10550000702806D0009B83F0100353EA0A0305D0ED
:105510000EE040228DF80420012208E05CEA01023E
:1055200006D030228DF804208DF805000222904626
:10553000009B83F0080353EA0A030AD15CEA0102E4
:1055400001D1620705D530228DF804204FF0010803
:105550007F1E582804D034A003900EA802900DE0BE
:1055600036A0F9E753466046009AFFF7C3FA84462F
:105570000398825C0298401E029002705CEA01006F
:10558000F0D1029806A9081A00F1200A600702D596
:1055900024F4803400E00127574502DDA7EB0A0020
:1055A00000E0002000EB0A01009005984144401AF9
:1055B0000590E00306D45B462146179A059800F053
:1055C000B3F90544002706E001A85A46C05D1799C3
:1055D00090476D1C7F1C4745F6DBE0030CD55B460E
:1055E0002146179A059800F09FF9054404E0302001
:1055F0005A46179990476D1C0099481E0090002943
:10560000F5DC08E0029802995A460078491C02919C
:10561000179990476D1CBAF10001AAF1010AF1DC5B
:1056200065E1000009280100303132333435363766
:1056300038396162636465660000000030313233DE
:10564000343536373839414243444546000000007E
:1056500000F058F90544761C307800287FF4ECAD52
:1056600019B02846BDE8F08F620700D4062709F17B
:10567000070222F0070CFCE80223E14603F0004891
:105680005FEA080C02D00FF2702C0DE05FEA045CB8
:1056900002D50FF2682C07E05FEAC47C02D00FF25B
:1056A000602C01E0AFF2700C4FF0FF3823F00043A4
:1056B000CDF850C065280CD006DC452809D0462816
:1056C0001DD047283DD13DE0662818D067287ED1FF
:1056D00038E00021112F01DB112000E0781CCDE91A
:1056E000000106A90EA8FFF7DDFCDDE90F010E9A07
:1056F00003910021009207F1010A04914DE04FF05F
:1057000000400097CDE9011006A90EA8FFF7CAFCDA
:10571000DDE90F0203920E9B11990022DDF80CA027
:105720000093049211B9791C00EB010AB7EB0A004F
:1057300004D4C0F1FF3007F1010A0490AAEB07007E
:10574000019044E0012F00DA01270021112F01DD33
:10575000112000E03846CDE9000106A90EA8FFF7A8
:10576000A1FCDDE90F010E9A039100210491009242
:10577000BA4621070CD40399514500DA8A46BAF19A
:10578000010F05DD009AAAF10101515C302908D012
:10579000B84202DA10F1040F06DA0121CDE9011056
:1057A00015E0AAF10101E9E7002805DC04990144AC
:1057B0000491AAEB000102E0411C514500DD8A463C
:1057C0000499401A401C01904FF0004002902007BD
:1057D00004D40198504501DBCDF8048000208DF8F9
:1057E0004F0002980DF14F07B0F1004F25D02B204C
:1057F0000E9002984FF0020800280CDA4042029006
:105800002D200E9007E00A210298FFF75DF9303154
:10581000029007F8011DB8F10001A8F10108F2DCBF
:1058200002980028EFD1791E0E980870307800F0A9
:10583000200040F0450007F8020D12A8C01B00F13F
:1058400007081498007800B1012000EB0A010198C4
:1058500001EBE07105984144401A401E0590E003B9
:1058600006D45B462146179A059800F05DF805447A
:105870001498007818B15A46179990476D1CE003A8
:1058800024D55B462146179A059800F04DF805444B
:105890001CE00498002807DBDDE90301884203DDF2
:1058A0000098405C179901E0179930205A469047BC
:1058B000049805F10105401C04900198401E0190D8
:1058C00004D12E205A46179990476D1CBAF1000159
:1058D000AAF1010ADDDC05E017F8010B5A46179919
:1058E00090476D1CB8F10001A8F10108F4DC5B469B
:1058F0002146179A0598ABE62D0000002B0000000A
:10590000200000002DE9F041044600251E46174600
:10591000880404D405E039462020B0476D1C641E7D
:10592000F9D52846BDE8F0812DE9F041044600256F
:105930001E469046C80301D5302700E02027880482
:1059400004D505E041463846B0476D1C641EF9D5C4
:105950002846BDE8F0814A68002A06D00A68531C30
:105960000B6010704868401E486070474C4F475F9E
:105970005461736B00656C6F675F73746172740060
:10598000656C6F675F7365745F6F75747075745F56
:10599000656E61626C656400656C6F675F736574EA
:1059A0005F666D7400656C6F675F7365745F6669D1
:1059B0006C74657200656C6F675F7365745F6669B0
:1059C0006C7465725F6C766C00656C6F675F736595
:1059D000745F66696C7465725F7461675F6C766C26
:1059E00000656C6F675F6765745F66696C7465728C
:1059F0005F7461675F6C766C00656C6F675F6F7575
:105A000074707574006765745F666D745F656E6150
:105A1000626C656400656C6F675F66696E645F6C7D
:105A2000766C00656C6F675F66696E645F74616752
:105A300000656C6F675F73747263707900656C6F7B
:105A4000675F6370796C6E00656C6F675F6D656D25
:105A5000637079001B5B33336D4672616D6520693D
:105A60006E666F0A2020747970653A2025303258AE
:105A7000680A2020646174613A2022252E2A73224C
:105A80000A2020206C656E3A2025750A20202020EF
:105A900069643A202558681B5B306D0A0A000000D3
:105AA000412F0000442F0000452F0000492F000027
:105AB000562F0000572F000033313B32326D00006B
:105AC00033323B32326D000033333B32326D0000F3
:105AD00033343B32326D000033353B32326D0000DF
