:020000040800F2
:10000000B89A0020790800087302000875020008F9
:10001000790200087D02000881020008000000004B
:10002000000000000000000000000000DD010008EA
:100030008502000800000000210200088702000875
:100040009308000893080008930800089308000824
:100050009308000893080008930800089308000814
:100060009308000893080008930800089308000804
:1000700093080008930800089308000893080008F4
:1000800093080008930800089308000893080008E4
:1000900093080008930800089308000893080008D4
:1000A00093080008930800089308000893080008C4
:1000B00093080008930800089308000893080008B4
:1000C00093080008930800089308000893080008A4
:1000D00093080008ED07000893080008930800083B
:1000E0009308000893080008930800089308000884
:1000F0009308000893080008930800089308000874
:100100009308000893080008930800089308000863
:100110009308000893080008930800089308000853
:100120009308000893080008930800089308000843
:1001300000F002F800F042F80AA090E8000C8244B7
:100140008344AAF10107DA4501D100F037F8AFF294
:10015000090EBAE80F0013F0010F18BFFB1A43F0A5
:1001600001031847EC3600000C370000103A24BF9A
:1001700078C878C1FAD8520724BF30C830C144BF0C
:1001800004680C607047000000230024002500264E
:10019000103A28BF78C1FBD8520728BF30C148BFEA
:1001A0000B607047642903F04382732903F0EB82EC
:1001B000002070471FB51FBD10B510BD03F016FB22
:1001C0001146FFF7F7FF00F0C6F903F034FB03B464
:1001D000FFF7F2FF03BC00F0ABFA0000224B1968F6
:1001E0000868B0E8F00F80F30988BFF36F8F4FF015
:1001F000000080F311884EF00D0E704700000000E3
:1002000006480068006880F3088862B661B6BFF3EC
:100210004F8FBFF36F8F00DF00BF00BF08ED00E01E
:10022000EFF30980BFF36F8F0F4B1A6820E9F00FCF
:10023000106008B54FF0500080F31188BFF34F8F66
:10024000BFF36F8F02F0B4F94FF0000080F3118814
:10025000BDE8084019680868B0E8F00F80F3098825
:10026000BFF36F8F704700BF6C000020EFF3058075
:100270007047704700BFFEE700BFFEE700BFFEE724
:1002800000BFFEE7704710B502F0BEFD012801D0A7
:1002900001F001FA10BD00000CB5002001900090A3
:1002A0006C48006840F480306A49086000BF6948C3
:1002B000006800F4003000900198401C0190009804
:1002C00018B90198B0F5A06FF1D16248006800F448
:1002D000003010B10120009001E000200090009853
:1002E000012843D15C48006840F010005A4908607A
:1002F0000846006820F0030008600846006840F0E7
:100300000200086053484068524948600846406807
:1003100048600846406840F480604860084640688D
:1003200020F47C1048600846406840F4E8104860BB
:100330000846006840F08070086000BF45480068CB
:1003400000F000700028F9D04248406820F0030017
:10035000404948600846406840F00200486000BFDD
:100360003C48406800F00C000828F9D10CBD10B5DD
:10037000FFF792FF10BD10B53648006840F001004D
:1003800034490860084640683449084031494860AB
:1003900008460068324908402E490860084600684F
:1003A00020F4802008600846406820F4FE00486081
:1003B0004FF41F008860FFF7DAFF4FF00060294913
:1003C000086010BD10B5002100200022214B5B68A1
:1003D00003F00C0121B1042906D0082928D107E037
:1003E000214B224C236027E01F4B204C236023E04D
:1003F000184B5B6803F47010164B5B6803F4803293
:10040000022303EB904022B9194B4343174C23605E
:100410000DE0104B5B6803F4003323B1144B4343EE
:10042000124C236003E0104B4343104C236003E065
:100430000D4B0E4C236000BF00BF064B5B68C3F33F
:1004400003130C4CE15C094B1B68CB40074C236049
:1004500010BD000000100240002002400000FFF824
:10046000FFFFF6FE08ED00E000127A000000002019
:1004700000093D000400002006E041F2883001F050
:100480004FFF43A003F06AF8F7E706E04FF4FA6085
:1004900001F046FF43A003F061F8F7E712E0002007
:1004A00044490860C82001F03BFF43A003F056F820
:1004B00001204849C1F8A001C82001F031FF46A041
:1004C00003F04CF8EBE71CB5012401F0A9F84A4809
:1004D000022100230A02CDE9001048A14A4801F098
:1004E00016FC0446012C02D148A003F037F84E4810
:1004F000032100234FF40072CDE900104BA14E48B8
:1005000001F005FC0446012C02D14CA003F026F8B2
:10051000514804210023CA01CDE900104FA15248DF
:1005200001F0F5FB0446012C02D150A003F016F8AF
:100530005548006801F038FC01F095F81CBD10B575
:100540004FF4407000F03CFF00F0CAF84FF4E13087
:1005500000F0FDF810BD1CB50124FFF7F0FF4BA023
:1005600002F0FCFF4848012100234A02CDE90010B7
:1005700056A15A4801F0CBFB0446012C02D102F0EF
:10058000EAF902E04FF0FF301CBD00BFFEE70000BB
:10059000B2C9BCAFB5C4CEC2B6C8CEAA3130A1E68E
:1005A0000D0A000068656C6C6F776F726C64210DCA
:1005B0000A000000A00121424C4544315F546173A0
:1005C0006B2052756E6E696E672C4C4544315F4FDF
:1005D0004E0D0A00000021424C4544315F546173C6
:1005E0006B2052756E6E696E672C4C4544315F4FBF
:1005F00046460D0A00000000180000204C4544311A
:100600005F5461736B0000009D040008B4B4BDA882
:100610004C4544315F5461736BC8CECEF1B3C9B958
:10062000A6210D0A000000001C0000205553415275
:10063000545F5461736B00008B040008B4B4BDA810
:1006400055534152545F5461736BC8CECEF1B3C958
:10065000B9A6210D0A0000002000002041485432B4
:10066000305F5461736B000079040008B4B4BDA816
:1006700041485432305F5461736BC8CECEF1B3C978
:10068000B9A6210D0A00000014000020D5E2CAC757
:10069000D2BBB8F65BD2B0BBF05D2D53544D3332B4
:1006A000C8ABCFB5C1D0BFAAB7A2B0E52D46726521
:1006B0006552544F532DB6AFCCACB4B4BDA8B6E020
:1006C000C8CECEF1CAB5D1E9210D0A0041707054EF
:1006D00061736B437265617465000000C7040008B4
:1006E00008B50121242000F003FC4FF48070ADF820
:1006F000000010208DF8030003208DF802006946E9
:10070000094800F039F94FF48071074800F0E1F929
:100710000420ADF800006946044800F02DF90421DA
:10072000024800F0D6F908BD00080140001401405D
:10073000014600BF704700BF4B4A128802F04002DA
:10074000002AF9D0C2B2484B1B1D1A80704710B561
:1007500086B00446012144F2040000F0C9FB42487F
:1007600000F02AFC4FF40070ADF8140003208DF85F
:10077000160018208DF8170005A93C4800F0FCF879
:100780004FF48060ADF8140004208DF8170005A91F
:10079000364800F0F1F825208DF8000003208DF890
:1007A00001008DF8020001208DF80300684600F07A
:1007B0000CFE01940020ADF80800ADF80A00ADF879
:1007C0000C00ADF810000C20ADF80E0001A9264871
:1007D00000F035FC012240F22551234800F0C7FC0F
:1007E0000121214800F0B7FC06B010BD10B540F261
:1007F00025511D4800F0A0FD10B31B4800F01CFD62
:10080000C4B21B48008800F40040C8B918480088EA
:1008100000F4804060B10A2C03D000201449088005
:1008200020E01348008840F400401149088019E096
:100830000D2C06D10E48008840F480400C490880F9
:1008400010E00B480088C0F30D000A490C5408481A
:100850000088401C0649088008460088C72801DD3A
:100860000020088010BD0000003801400008014051
:1008700028000020AC0000200948804709480047B4
:10088000FEE7FEE7FEE7FEE7FEE7FEE7FEE7FEE740
:10089000FEE7FEE704480549054A064B704700009D
:1008A0007703000831010008B8940020B89A0020AE
:1008B000B8960020B896002010B50446CC48844273
:1008C00008D10121042000F02DFB0021042000F0BC
:1008D00029FB46E0C748844208D10121082000F0E6
:1008E00021FB0021082000F01DFB3AE0C2488442B1
:1008F00008D10121102000F015FB0021102000F08C
:1009000011FB2EE0BD48844208D10121202000F0D7
:1009100009FB0021202000F005FB22E0B8488442BA
:1009200008D10121402000F0FDFA0021402000F014
:10093000F9FA16E0B348844208D10121802000F082
:10094000F1FA0021802000F0EDFA0AE0AE4884427E
:1009500007D10121801500F0E5FA0021A01500F073
:10096000E1FA10BD10B50121084600F0DBFA0021C4
:10097000012000F0D7FA10BD2DE9F0410246002514
:100980000026002000230024002791F803C00CF06B
:100990000F0591F803C00CF0100CBCF1000F03D050
:1009A00091F802C04CEA050591F800C0BCF1000FB7
:1009B00031D0146800202BE04FF0010C0CFA00F34A
:1009C000B1F800C00CEA03069E4220D183004FF02C
:1009D0000F0C0CFA03F7BC4305FA03FC4CEA0404C1
:1009E00091F803C0BCF1280F06D14FF0010C0CFAAE
:1009F00000FCC2F814C00AE091F803C0BCF1480F33
:100A000005D14FF0010C0CFA00FCC2F810C0401CDC
:100A10000828D1D31460B1F800C0BCF1FF0F34DD59
:100A2000546800202EE000F1080C4FF0010808FA8D
:100A30000CF3B1F800C00CEA03069E4221D18300FA
:100A40004FF00F0C0CFA03F7BC4305FA03FC4CEA19
:100A5000040491F803C0BCF1280F05D100F1080C83
:100A600008FA0CF8C2F8148091F803C0BCF1480FE2
:100A700007D100F1080C4FF0010808FA0CF8C2F891
:100A80001080401C0828CED35460BDE8F0814FF69A
:100A9000FF710180022181700421C17070470246FC
:100AA000002093680B400BB1012000E0002070474C
:100AB0000146886880B2704702460020D3680B4028
:100AC0000BB1012000E0002070470146C86880B2E9
:100AD000704701617047416170470AB1016100E0F0
:100AE00041617047C16070474FF480320A438261B0
:100AF0008161826182698269704702460020434BAE
:100B000018684FF68073184040EA021008433F4BC4
:100B1000186070473E49C8617047F0B50A46002327
:100B200000240021002500F00046B6F1004F02D15C
:100B3000364EF16901E0354E7168C0F3034583B26A
:100B400000F44016B6F5401F08D121F070612F4E19
:100B5000766826F070662D4F7E6012E000F48016F5
:100B6000B6F5801F06D1032606FA05F4A14341F02D
:100B7000706106E0460D360103FA06F6B14341F016
:100B8000706122B1460D360103FA06F6314300F0DA
:100B90000046B6F1004F02D11C4EF16101E01B4E40
:100BA0007160F0BD30B500228B071C0F0F2303FAD4
:100BB00004F2164B08338C1053F824309343134C33
:100BC00008348D1044F8253023468C1053F8243017
:100BD0008C07240F00FA04F423430C4C08348D10C6
:100BE00044F8253030BD0A49DC3108607047000008
:100BF00000080140000C01400010014000140140B9
:100C000000180140001C014000200140000001408C
:100C100000002042DF48006840F00100DD49086024
:100C200008464068DC490840DA49486008460068E0
:100C3000DA490840D74908600846006820F4802057
:100C400008600846406820F4FE0048604FF41F002A
:100C500088607047CF49096821F48031CD4A11601E
:100C60001146096821F480211160B0F5803F03D05E
:100C7000B0F5802F0ED106E0C649096841F48031F5
:100C8000C44A116007E0C349096841F4A021C14A80
:100C9000116000E000BF00BF704710B501460022A0
:100CA000002300204A11012A02D1BA4C236806E031
:100CB000022A02D1B74C236A01E0B64C636A01F004
:100CC0001F02012494401C400CB1012000E00020D0
:100CD00010BD38B5002000900024002500BF312051
:100CE000FFF7DBFF05460098401C00900098B0F528
:100CF000A06F01D0002DF2D03120FFF7CEFF08B158
:100D0000012400E00024204638BD01460020A14A0D
:100D1000106820F0F80040EAC10010607047A04958
:100D200008607047024600209A4B586820F47C10F7
:100D300042EA01031843974B586070479849086688
:100D4000704701460020934A506820F00300084392
:100D5000506070478F48406800F00C0070470146B3
:100D600000208C4A506820F0F00008435060704723
:100D700001460020874A506820F4E0600843506034
:100D8000704701460020834A506820F4605040EAD2
:100D9000C1005060704729B17E4A527A02437D4BB0
:100DA0005A7204E07B4A527A82437A4B5A727047F5
:100DB0007B49D8310860704701460020754A506869
:100DC00020F440400843506070470021714A2032AF
:100DD0001170704A82F82010012802D004280AD12C
:100DE00004E001216B4A2032117005E00521694AB7
:100DF0002032117000E000BF00BF704769490860F1
:100E000070476449096A0143624A11627047654943
:100E100044390860704730B50021002200240023C7
:100E20005C4D6D6805F00C0121B1042905D008293D
:100E300023D105E05C4D056022E05B4D05601FE0BD
:100E4000544D6D6805F47012524D6D6805F4803490
:100E5000022505EB92421CB9544D554305600BE049
:100E60004C4D6D6805F400351DB1504D554305607E
:100E700002E04D4D5543056002E04B4D056000BF5B
:100E800000BF444D6D6805F0F0010909484D6B5CE9
:100E90000568DD4045603F4D6D6805F4E061090A75
:100EA000434D6B5C4568DD4085603A4D6D6805F4E7
:100EB0006051C90A3E4D6B5C4568DD40C560354DEB
:100EC0006D6805F44041890B3A4D6B5CC568B5FB14
:100ED000F3F5056130BD29B12E4A526902432D4B0D
:100EE0005A6104E02B4A526982432A4B5A61704787
:100EF00029B1284A92690243264B9A6104E0254AA7
:100F000092698243234B9A61704729B1214AD26981
:100F10000243204BDA6104E01E4AD26982431D4B32
:100F2000DA61704729B11B4AD2680243194BDA6073
:100F300004E0184AD2688243164BDA60704729B140
:100F4000144A12690243134B1A6104E0114A1269F0
:100F50008243104B1A61704712494039086070474C
:100F60000F49C86470470B49C87170470948406A07
:100F700040F0807007494862704701460020054AEA
:100F800092680A400AB1012000E000207047014940
:100F900088727047001002400000FFF8FFFFF6FE65
:100FA000000042428004424200127A0000093D00E3
:100FB0002A0000203A00002010B50446FB48844275
:100FC00009D101218803FFF7ADFF00214FF48040D4
:100FD000FFF7A8FF32E0F648844209D10121480416
:100FE000FFF7ADFF00214FF40030FFF7A8FF25E029
:100FF000F048844209D101218804FFF7A0FF0021B5
:101000004FF48020FFF79BFF18E0EB48844209D1A2
:101010000121C804FFF793FF00214FF40020FFF7E0
:101020008EFF0BE0E548844208D101210805FFF757
:1010300086FF00214FF48010FFF781FF10BD2DE9DE
:10104000F04786B005460E460024A24600BFA146E2
:101050000027B08900B100BF2F462C8A4CF6FF70E4
:101060000440F08804432C82AC894EF6F31004400F
:10107000B08831890843718908430443AC81AC8A44
:101080004FF6FF400440B0890443AC8201A8FFF74B
:10109000C2FEC648874202D1DDF810A001E0DDF8AB
:1010A0000CA0A88900F4004040B10AEBCA0000EB94
:1010B0000A1031684900B0FBF1F807E00AEBCA00FA
:1010C00000EB0A1031688900B0FBF1F86420B8FB2E
:1010D000F0F004012009642101FB1089A88900F4C3
:1010E000004040B1322000EBC900B0FBF1F000F04D
:1010F0000700044308E0322000EB09106421B0FB34
:10110000F1F000F00F0004432C8106B0BDE8F08739
:101110004FF41651016000218180C18001810C21B2
:10112000418100218181704710B502460020108A5C
:101130004FF2FF0318400B884C8823438C882343CD
:10114000CC8823431843108210BD002101804180C8
:101150008180C180704721B1828942F4005282812E
:1011600004E082894DF6FF731A4082817047F0B522
:101170000346002400260025002040F66A17B942E5
:1011800000D100BF1846C1F3421401F01F06012729
:1011900007FA06F5012C01D10C3004E0022C01D134
:1011A000103000E014301AB107682F43076002E0E6
:1011B0000768AF430760F0BD1AB1838A0B4383828F
:1011C00002E0838A8B4383827047028A4FF6F07372
:1011D0001A400282028A0A430282704782894FF2D1
:1011E000FF731A40828182890A438281704721B14C
:1011F000828942F00202828104E082894FF6FD7307
:101200001A4082817047028A4FF6DF731A400282C9
:10121000028A0A430282704721B1028A42F4804264
:10122000028204E0028A4BF6FF731A400282704782
:10123000C1F308028280704701468888C0F3080025
:101240007047818941F0010181817047028BD2B2E0
:101250000283028B42EA012202837047028B02F46E
:101260007F420283028B0A430283704721B1828A44
:1012700042F02002828204E0828A4FF6DF731A4035
:101280008282704721B1828A42F01002828204E099
:10129000828A4FF6EF731A408282704721B1828AA8
:1012A00042F00802828204E0828A4FF6F7731A4005
:1012B0008282704721B1828942F40042828103E038
:1012C0008289C2F30E028281704721B1828A42F480
:1012D0000062828204E0828A4FF2FF731A408282A7
:1012E0007047828A4FF6FB731A408282828A0A43D1
:1012F0008282704721B1828A42F00202828204E037
:10130000828A4FF6FD731A4082827047024600209F
:10131000B1F5007F00D100BF13880B400BB1012055
:1013200000E00020704701F40072B2F5007F00D1A8
:1013300000BFCA430280704770B5024600240023F4
:101340000025002040F66A16B14200D100BFC1F36B
:10135000421501F01F03012606FA03F3012D02D105
:101360009689334006E0022D02D1168A334001E00F
:10137000968A33400C12012606FA04F4168834408B
:1013800013B10CB1012000E0002070BD10B50022A7
:10139000002340F66A14A14200D100BF0A120124C2
:1013A0009440A3B2DC43048010BD0000003801402B
:1013B0000044004000480040004C00400050004005
:1013C00031490143314A1160704770B50021002353
:1013D0000F22C47804B32D4C246804F4E064C4F5EF
:1013E000E064210AC1F10403CA40447804FA03F11D
:1013F0008478144021430901254C0678A1550478CE
:1014000004F01F050124AC4005786D11AD0005F115
:10141000E025C5F8004109E0047804F01F05012427
:10142000AC401C4D0678761145F8264070BD1A4A2E
:101430000A400243154B1B1F1A60704739B1134A0B
:10144000121D12680243114B1B1D1A6006E00F4A61
:10145000121D126882430D4B1B1D1A607047042831
:1014600008D14FF0E021096941F004014FF0E0227A
:10147000116107E04FF0E021096921F004014FF00C
:10148000E0221161704700000000FA050CED00E059
:1014900000E400E080E100E080FFFF1FA04800685A
:1014A000401C08B9012000E0002020B9CE229DA1F7
:1014B000A6A002F053F800BF502080F31188BFF3BC
:1014C0004F8FBFF36F8F00BF00BFFEE7001F4FF0CD
:1014D00080730360001F21F001030360001F9F4B16
:1014E0000360143802602038704700204FF0E0217C
:1014F000086188619A4800684FF47A71B0FBF1F096
:10150000401E4FF0E02148610720086170471CB57C
:10151000944C204600780190FF2021460870084630
:10152000007800909DF8000000F0F0009DF8001099
:10153000884201D1012000E0002028B940F21F12AA
:1015400078A182A002F00AF89DF8000000F0500097
:101550008549087007208549086009E083480068CC
:10156000401E824908609DF800004006000E009071
:101570009DF8000000F080008028EFD07B480068D4
:10158000C0F10700042801D1012000E0002028B9A3
:1015900040F2331263A16DA001F0E0FF73480068D0
:1015A000C0F10700042801D1012000E0002028B983
:1015B0004FF49E725BA165A001F0D0FF6B480068FC
:1015C00000026A4908600846008800F4E06008608C
:1015D0006449019808706648006840F470006449E6
:1015E00008600846006840F070400860FFF77DFF23
:1015F00000204B490860FEF703FE00201CBD10B51B
:1016000047480068B0F57A7F01D1012000E0002052
:1016100028B940F2631243A14CA001F09FFF10BD16
:1016200010B500BF502080F31188BFF34F8FBFF378
:101630006F8F00BF3A480068401C3949086008466F
:10164000006801280ED14A481C380068C0B208B9A9
:10165000012000E0002028B940F2731231A13BA024
:1016600001F07CFF10BD10B52D48006828B94FF47B
:10167000BD722CA135A001F071FF29480068401E01
:10168000274908600846006820B9002080F31188C7
:1016900000BF00BF10BD10B500BF502080F31188FF
:1016A000BFF34F8FBFF36F8F00BF00F0E1FB20B19E
:1016B0004FF080502E491C39086000BF002080F395
:1016C000118800BF10BD70B5FEF7D0FD0546102D86
:1016D00011D305F1E02090F8F043234800788442CC
:1016E00001DB012000E0002028B940F2BB220DA15F
:1016F00016A001F033FF1E481438006800F4E060C3
:101700001A490968884201D8012000E0002028B960
:1017100040F2CB2203A10DA001F020FF70BD00001C
:10172000400000202E2E5C4672656552544F535C7B
:10173000706F72745C525644535C41524D5F434D1E
:10174000335C706F72742E63000000004572726F1C
:10175000723A25732C25640D0A0000009D140008C0
:101760000000002000E400E04400002048000020C9
:1017700020ED00E010B50146B84800E000680368BD
:101780008B42FBD30246436813448B4204D1436827
:101790004C682344436001460A464B68134404687E
:1017A000A34211D1AE4C03682468A34208D04B6811
:1017B0000468646823444B6003681B680B6005E0A1
:1017C000A74B1B680B6001E003680B60884200D0E8
:1017D000016010BD30B54FF41043A24800F007047B
:1017E0002CB1C01D20F007009E4C041B1B1B0246A1
:1017F0009A4C22600024994D6C60D018083820F073
:101800000700974C20600024954D2D686C60944D26
:101810002D682C601146441A4C60914C24680C6071
:10182000914D4C682C60914D4C682C604FF00044F9
:101830008F4D2C6030BD2DE9F04104464FF000087B
:1018400000F00CFD8648006808B9FFF7C3FF884820
:1018500000682040002873D114B304F10800A042AE
:101860001ED9083404F00700D8B104F00700C0F115
:1018700008002044A04211D904F00700C0F108007C
:10188000044404F0070008B9012000E0002040B93A
:101890009C2278A180A001F061FE02E0002400E01B
:1018A0000024002C4CD071480068844248D86B4E0C
:1018B0003046056801E02E462D686868A04202D2D5
:1018C00028680028F7D166480068854238D030681B
:1018D00000F10808286830606868001B102813D9D8
:1018E0002F1907F0070008B9012000E0002020B9F7
:1018F000CF2260A168A001F031FE6868001B78600B
:101900006C603846FFF736FF584968680968081A5E
:10191000564908600846006853490968884203D25E
:10192000524800685049086051496868096808438E
:101930006860002028605C480068401C5A490860C4
:1019400000F094FB08F0070008B9012000E0002037
:1019500028B94FF4887247A14FA001F0FFFD40461F
:10196000BDE8F08170B506463546002E3AD0083DF8
:101970002C463F4960680968084008B1012000E032
:10198000002028B94FF492723AA143A001F0E6FD7D
:10199000206808B9012000E0002028B940F2251293
:1019A00034A13DA001F0DAFD3149606809680840C2
:1019B000C0B12068B0B92E4960680968884360608A
:1019C00000F04CFC29496068096808442749086010
:1019D0002046FFF7CFFE35480068401C33490860B9
:1019E00000F044FB70BD2148006870471E48006845
:1019F000704770472DE9F04104464FF0000800267B
:101A0000771E00F02BFC154805687DB100BF08F17A
:101A100001086868B04200D96E686868B84200D2B0
:101A20006F682D680E4800688542F0D100F01EFBFB
:101A30006660A760C4F80C80FFF7F2FD0B480068F1
:101A4000206019480068606118480068A061064875
:101A500000682061FFF707FEBDE8F0814C00002020
:101A600054000020740100205C0000205800002079
:101A7000680000202E2E5C4672656552544F535C00
:101A8000706F72745C4D656D4D616E675C68656109
:101A9000705F342E630000004572726F723A2573D6
:101AA0002C25640D0A000000600000206400002066
:101AB00000F1080141604FF0FF31816000F1080141
:101AC000C160016100210160704700210161704720
:101AD00042684A6093688B609368596091600861BE
:101AE00003685B1C0360704710B502460B685C1C02
:101AF0000CB9106907E002F1080000E04068446892
:101B000024689C42FAD944684C604C68A1608860A3
:101B100041600A611468641C146010BD01460A69C2
:101B2000D1E901309860D1E90103586050688842DA
:101B300001D188685060002008611068401E106064
:101B40001068704710B5002407E004EB8401FE4ADA
:101B500002EB8100FFF7ACFF641C202CF5D3FB489F
:101B6000FFF7A6FFFA48FFF7A3FFFA48FFF7A0FF29
:101B7000F948FFF79DFFF948FFF79AFFF348F84946
:101B80000860F348F749086010BD10B50446FFF738
:101B900047FDF5480068401CF3490860F3480068B9
:101BA00040B9F24804600846006801280DD1FFF7EB
:101BB000C9FF0AE0EE48006838B9EC480068C06A1E
:101BC000E16A884201D8E9480460EA480068401C9C
:101BD000E849086094F82C1001208840E64909681B
:101BE0000843E5490860E16A01EB8101D64A02EB4E
:101BF00081014868A0608268E260211D82685160AE
:101C00008160E16A01EB8101CF4A02EB81026261EE
:101C1000E16A01EB8101CC4A52F82110491CE26AC9
:101C200002EB8202C84B43F82210FFF71CFDD0489C
:101C3000006868B1CD480068C06AE16A884207D28E
:101C40004FF08050CD490860BFF34F8FBFF36F8FC7
:101C500010BD2DE9FF5F81460E469246DDE90E7B01
:101C6000109CAAF10100216B01EB800828F0070805
:101C700008F0070008B9012000E0002028B94FF45F
:101C80005872BFA1C4A001F069FC86B1002507E02D
:101C9000715D04F134004155705D00B902E06D1CC6
:101CA000102DF5D300BF00214320015502E0002094
:101CB00084F83400202F01D2012000E0002028B950
:101CC00040F29732AEA1B4A001F048FC202F00D31F
:101CD0001F27E762201DFFF7F8FE04F11800FFF749
:101CE000F4FE2461C7F12000A061646200206064FA
:101CF00084F8480049464046039AFFF7E7FB206016
:101D0000BBF1000F01D0CBF80040BDE8FF9F2DE9EB
:101D1000FF4F85B0804689461746DDE912ABB80013
:101D2000FFF789FD064656B14C20FFF784FD0446B7
:101D30000CB1266304E03046FFF714FE00E00024F7
:101D40007CB10020CDE900ABCDE902403A464946DE
:101D50004046089BFFF77DFF2046FFF716FF012551
:101D600001E04FF0FF35284609B0BDE8F08F10B50F
:101D70000446206BFFF7F6FD2046FFF7F3FD10BD8C
:101D800077480068006808B9012000E0002020B111
:101D90004FF0FF308449086005E071480068C06872
:101DA000006881490860704770B50546FFF738FC48
:101DB00015B96E48006800E028460446201DFFF76C
:101DC000ADFE78B9E06A00EB80005F4951F8200071
:101DD00040B994F82C100120884067490968814374
:101DE00065480160A06A18B104F11800FFF796FE7B
:101DF00060480068401C5F4908605C480068844295
:101E000009D1211D5448FFF763FE68480068401C53
:101E10006649086006E054480068401E5249086060
:101E2000FFF7AEFFFFF71FFC50480068844202D066
:101E30002046FFF79CFF4E480068C0B14B48006841
:101E4000844214D15A48006808B9012000E00020FB
:101E500028B940F2DC424AA14FA001F07FFB4FF0CD
:101E6000805046490860BFF34F8FBFF36F8F70BD3E
:101E70002DE9F0414FF000084D480068002861D17D
:101E80004C480068451C4B480560EDB93448006873
:101E9000006808B9012000E0002028B940F6C722F8
:101EA00037A13DA001F05AFB2D4807682D48006876
:101EB0002B4908602B4807603F480068401C3E499A
:101EC0000860FFF75DFF00BF37480068854275D3A3
:101ED00000BF23480068006808B9012000E0002026
:101EE00020B14FF0FF3030490860A4E01C48006882
:101EF000C068C4686668B54202D22B4806609AE0A2
:101F00006069D4E902128A60D4E902214A60211D85
:101F100042688A4201D1E168416000226261016841
:101F2000491E0160A06A70B1A06AD4E907128A60F4
:101F3000D4E907214A6004F1180142688A423FD17E
:101F4000216A3CE08AE041E074910020F493002093
:101F5000089400201C940020309400204494002019
:101F600070000020740000207C0000206C00002025
:101F700088000020980000208400002004ED00E08C
:101F80002E2E5C4672656552544F535C7372635CCF
:101F90007461736B732E63004572726F723A2573AE
:101FA0002C25640D0A0000009C0000207800002011
:101FB000A800002080000020940000203CE0416048
:101FC0000022A2620168491E016000BF94F82C1033
:101FD00001208840F74909680843F6490860E16A2A
:101FE00001EB8101F44A02EB81014868A06082683C
:101FF000E260211D826851608160E16A01EB81012C
:10200000ED4A02EB81026261E16A01EB8101EA4A79
:1020100052F82110491CE26A02EB8202E64B43F8B7
:102020002210E649E06A0968C96A8842FFF451AFA4
:102030004FF001084DE700BFE0480068C06A00EBC0
:102040008000DD4951F82000012801D94FF0010836
:10205000DB48006808B14FF0010804E0D948006887
:10206000401CD84908604046BDE8F08170B50024A6
:102070000026D548006838B940F6B302AFF2001127
:10208000AFF2EC0001F06AFAFFF7CAFACE48006836
:10209000401ECD4908600846006800287ED1CB4824
:1020A000006800287AD05BE0C948C068C468A06AAC
:1020B000D4E907128A60D4E907214A6004F11801C3
:1020C00042688A4201D1216A41600022A26201680D
:1020D000491E01606069D4E902128A60D4E90221D4
:1020E0004A60211D42688A4201D1E16841600022B4
:1020F00062610168491E016094F82C10012088403B
:10210000AC4909680843AB490860E16A01EB810109
:10211000A94A02EB81014868A0608268E260211D43
:10212000826851608160E16A01EB8101A24A02EBA1
:1021300081026261E16A01EB81019F4A52F821103C
:10214000491CE26A02EB82029B4B43F822109B4936
:10215000E06A0968C96A884202D301209849086088
:102160009B48006808B9012000E0002000289BD0AF
:102170000CB1FFF705FE9348056865B100BFFFF796
:1021800077FE10B101208E4908606D1E002DF6D13A
:1021900000208C4908608A48006800E008E038B1F7
:1021A000012630078B490860BFF34F8FBFF36F8F55
:1021B000FFF759FA304670BD2DE9F04105460E464D
:1021C000854807687D480068001DFFF7A7FC50B9E7
:1021D0007A48006890F82C100120884075490968F9
:1021E000814374480160681CD8B9D6B17B494868FE
:1021F000724909688860714982680968CA606F49D4
:102200000968091D826851606C490968091D81606F
:10221000724A6A4909684A6111460968491C116095
:102220001AE07C19654800684460BC4207D26348E4
:102230000168091D6A480068FFF756FC0CE05F481A
:102240000168091D67480068FFF74EFC6648006892
:10225000844201D264480460BDE8F0815A480068B5
:10226000401C5949086070472DE9F04704460F4665
:102270004FF000093CB940F2F142AFF2FC21AFF25D
:10228000E82001F06BF90FB1012000E0002038B91F
:1022900040F2F242AFF21831AFF2043001F05EF9D1
:1022A0004948006808B9012000E0002038B940F230
:1022B000F342AFF23431AFF2203001F04FF9FFF7C3
:1022C000CDFF454806682068C5192068B04207D987
:1022D0002068A8420BD9B54209D94FF0010906E0A0
:1022E0002068A84201D8B54201D94FF00109256004
:1022F000B9F1000F03D0A81B0021FFF75DFFFFF726
:10230000B5FE8046B8F1000F07D14FF0805031493B
:102310000860BFF34F8FBFF36F8F4846BDE8F0876B
:1023200070B504460025BCB12748006808B90120F3
:1023300000E0002038B940F24952AFF2BC31AFF2B0
:10234000A83001F00BF9FFF789FF00212046FFF7C5
:1023500033FFFFF78BFE05463DB94FF080501D4916
:102360000860BFF34F8FBFF36F8F70BD2DE9F0474B
:1023700007463E463EB940F27552AFF2FC31AFF22D
:10238000E83001F0EBF80D480068864201D10024E6
:1023900049E0FFF745F975691248D0F80080104808
:1023A000D0F80090FFF75FF9454501D04D451DD1AC
:1023B000022438E084000020749100206C0000208A
:1023C000900000208C000020A80000207C0000204D
:1023D0001C94002004ED00E08000002044940020C4
:1023E00074000020700000209C000020FD48854201
:1023F00012D1B06A70B90324002007E006F1480149
:10240000095C012901D1022402E0401C0128F5DB0E
:1024100000BF08E0022406E0F348854200D00DB971
:10242000042400E001242046BDE8F08770B504468E
:10243000FFF7F6F814B9ED48006800E020460646BC
:10244000F56AFFF710F9284670BD2DE9F041054601
:10245000FFF739F900BF5021EFF3118081F31188A4
:10246000BFF34F8FBFF36F8F00BF044615B9DF482E
:10247000006800E028460746FE6A00BF84F3118822
:1024800000BF3046BDE8F0812DE9F04780460D469B
:102490004FF00009202D01D2012000E0002038B9C2
:1024A00040F21562AFF22851AFF2145001F056F825
:1024B000202D00D31F25FFF7B3F8B8F1000F02D18C
:1024C000CA48006800E040460446E66AAE426BD067
:1024D000B5420BD9C548006884420DD0C348006896
:1024E000C06AA84208D84FF0010905E0BF4800685B
:1024F000844201D14FF00109E76AE562A06900F06A
:10250000004010B9C5F12000A06107EB8701B84A6F
:1025100002EB81016069884201D1012000E00020C6
:10252000B0B3201DFFF7FAFA30B90120B840B14925
:1025300009688143AF48016094F82C10012088405D
:10254000AC4909680843AB490860E16A01EB8101C5
:10255000A74A02EB81014868A0608268E260211D01
:10256000826851608160E16A01EB8101A04A02EB5F
:1025700081026261E16A01EB81019D4A52F82110FA
:10258000491CE26A02EB8202994B43F8221000BF19
:10259000B9F1000F07D04FF0805097490860BFF3A2
:1025A0004F8FBFF36F8F00BFFFF75DF8BDE8F08777
:1025B00010B59248006818B10120914908602FE0D9
:1025C00000208F4908608B480068B0FA80F0C0F1A5
:1025D0001F0404EB8400864951F8200008B1012053
:1025E00000E0002038B940F60242AFF26C61AFF271
:1025F000586000F0B3FF04EB84017D4A02EB8100D8
:1026000041684968416000F1080142688A4202D18C
:102610004168496841604168C968744A116000BFF7
:1026200010BD70B50546FEF7FBFF15B96F48006891
:1026300000E028460446201DFFF770FA78B9E06AEA
:1026400000EB80006A4951F8200040B994F82C1042
:102650000120884067490968814366480160A06A93
:1026600018B104F11800FFF759FA211D5D48FFF772
:102670002FFA002009E004F14801095C012903D187
:10268000002204F148010A54401C0128F3DBFEF744
:10269000EAFF5C48006828B1FEF7C2FFFFF770FB55
:1026A000FEF7E1FF51480068844226D15548006892
:1026B000B8B15248006808B9012000E0002038B9DC
:1026C00040F2FD62AFF24871AFF2347000F046FFA5
:1026D0004FF0805048490860BFF34F8FBFF36F8FB2
:1026E0000BE04048006848490968884203D100204F
:1026F0003E49086001E0FFF75BFF70BD70B505461D
:1027000000262C463DB940F22772AFF28C71AFF231
:10271000787000F023FF33496069884201D10120BD
:1027200000E0002070B13949A06A884201D101203F
:1027300000E0002030B9A06A08B9012000E00020C4
:1027400000B10126304670BD70B505462C463DB936
:1027500040F25172AFF2D871AFF2C47000F0FEFED9
:102760002248006884425DD0002C5BD0FEF758FF01
:102770002046FFF7C3FFA0B3201DFFF7CFF994F861
:102780002C10012088401B4909680843194908603A
:10279000E16A01EB8101164A02EB81014868A06001
:1027A0008268E260211D826851608160E16A01EB0C
:1027B00081010F4A02EB81026261E16A01EB810152
:1027C0000B4A52F82110491CE26A02EB8202084BC4
:1027D00043F822100549E06A0968C96A88421FD394
:1027E00016E01DE044940020309400206C0000208E
:1027F000749100208400002004ED00E0A800002077
:1028000090000020880000207C0000201C94002004
:102810004FF08050FB490860BFF34F8FBFF36F8FBD
:10282000FEF721FF70BD2DE9F04106460027344632
:102830003EB94FF4F162AFF6B801AFF6A40000F074
:102840008DFEFEF740FF00BF5020EFF3118180F3B3
:102850001188BFF34F8FBFF36F8F00BF0D46204627
:10286000FFF74CFF002841D0E7480068002838D126
:10287000E649E06A0968C96A884203D30127012052
:10288000E3490860201DFFF749F994F82C10012056
:102890008840E04909680843DE490860E16A01EBC5
:1028A0008101DD4A02EB81014868A0608268E26034
:1028B000211D826851608160E16A01EB8101D64A85
:1028C00002EB81026261E16A01EB8101D24A52F8B6
:1028D0002110491CE26A02EB8202CF4B43F822101E
:1028E00004E004F11801CD48FFF7F2F800BF85F3CA
:1028F000118800BF3846BDE8F08110B516E0FEF73C
:102900008FFEC748C068C468201DFFF707F9C54897
:102910000068401EC3490860C3480068401EC249A1
:102920000860FEF7A0FE2046FFF721FABE480068C7
:102930000028E4D110BD00BFFFF7DFFFB6480068F4
:102940000128F9D94FF08050AE490860BFF34F8F8E
:10295000BFF36F8FF0E71CB5B44800210B4680220F
:10296000CDE90010B2A1B448FFF7D1F90446012C1B
:1029700015D100BF502080F31188BFF34F8FBFF3F4
:102980006F8F00BF4FF0FF30AC4908600120AC49A9
:1029900008600020AB490860FEF7B9FD0DE0601C3F
:1029A00008B1012000E0002038B94FF40462AFF60E
:1029B0003021AFF61C2000F0D1FDA34800681CBDFB
:1029C00010B500BF502080F31188BFF34F8FBFF3C5
:1029D0006F8F00BF00209A490860FEF710FE10BDFF
:1029E00098490868704770B5FEF76DFE0025954858
:1029F0000468204670BD8B480068704770B5044677
:102A000014B98248006800E0204605463DB940F60A
:102A10005912AFF69421AFF6802000F09FFD05F12A
:102A2000340070BD70B504467748006808B90120CD
:102A300000E0002038B940F65422AFF6BC21AFF6D2
:102A4000A82000F08BFDFFF709FC804800682044B7
:102A50007E490860FFF70AFB0546284670BD70B541
:102A600004460D463CB940F61C42AFF6EC21AFF6E9
:102A7000D82000F073FD6548016818312046FFF743
:102A800033F801212846FFF797FB70BD70B5044667
:102A90000D4616463CB940F63642AFF61C31AFF64D
:102AA000083000F05BFD5848006808B1012000E0E4
:102AB000002038B940F63A42AFF63C31AFF6283044
:102AC00000F04CFD45F0004050490968886160689D
:102AD0004E490968C8614D49826809680A624B49D4
:102AE0000968183182685160484909681831816065
:102AF000464909688C622168491C216001213046E1
:102B0000FFF75AFB70BD70B50646F068C4683CB963
:102B100040F68242AFF69831AFF6843000F01EFDE9
:102B2000A06AD4E907128A60D4E907214A6004F157
:102B3000180142688A4201D1216A41600022A262E2
:102B40000168491E01603048006800283DD1606975
:102B5000D4E902128A60D4E902214A60211D426848
:102B60008A4201D1E1684160002262610168491E28
:102B7000016094F82C100120884026490968084318
:102B800024490860E16A01EB8101234A02EB8101DB
:102B90004868A0608268E260211D8268516081609F
:102BA000E16A01EB81011C4A02EB81026261E16A88
:102BB00001EB8101184A52F82110491CE26A02EB2C
:102BC0008202154B43F8221010E014494868E06176
:102BD0008268226204F118018268516081600F4AA4
:102BE000A26211460968491C116000BF0749E06AEA
:102BF0000968C96A88422BD9012501200449086067
:102C000027E0000004ED00E0A80000206C00002098
:102C10009000002084000020749100201C9400206B
:102C2000309400207C00002078000020A0000020CC
:102C300049444C4500000000372900089C00002052
:102C40008800002080000020A40000208C000020CC
:102C50000025284670BD70B505460E46F948006847
:102C600008B1012000E0002038B940F6BA42AFF6C2
:102C7000F041AFF6DC4000F071FC46F00040286007
:102C8000EC683CB940F6C242AFF60C51AFF6F840E2
:102C900000F064FC2869D5E901219160D5E90112B1
:102CA00051604168A94201D1A968416000212961B0
:102CB0000168491E01606069D4E902128A60D4E9A2
:102CC00002214A60211D42688A4201D1E1684160C7
:102CD000002262610168491E016094F82C100120F5
:102CE0008840D94909680843D7490860E16A01EB7F
:102CF0008101D64A02EB81014868A0608268E260E7
:102D0000211D826851608160E16A01EB8101CF4A37
:102D100002EB81026261E16A01EB8101CB4A52F868
:102D20002110491CE26A02EB8202C84B43F82210D0
:102D3000C749E06A0968C96A884202D90120C549C1
:102D4000086070BD10B504463CB940F6E642AFF6E7
:102D5000D051AFF6BC5000F001FCFEF761FCBE485C
:102D600000682060BD4800686060FEF77CFC10BD14
:102D7000B94909680160B94909684160704770B58F
:102D800005460C463DB940F6FD42AFF60C61AFF684
:102D9000F85000F0E3FB3CB940F6FE42AFF620618C
:102DA000AFF60C6000F0DAFBFEF73AFCAB480368C4
:102DB00068681A1A2068401C08B9002619E0A6495C
:102DC00028680968884206D06868984203D80126B6
:102DD000002020600DE02068904207D92068801A0A
:102DE00020602846FFF7C4FF002602E00020206094
:102DF0000126FEF738FC304670BD01209549086079
:102E000070479349086870479549096809B90120D6
:102E100005E08C49096809B9022000E000207047EC
:102E20008B49096888698A490968C96AC1F1200122
:102E3000874A1268916170472DE9F04104460F46B8
:102E400016460CB9012000E0002038B941F2662294
:102E5000AFF6D461AFF6C06000F080FBFEF7E0FB98
:102E60007B480068443050F8240080B9012178483C
:102E700000684830015556B13046FFF79DF94FF0D4
:102E8000805078490860BFF34F8FBFF36F8FFEF714
:102E9000EAFBFEF7C5FB6E480068443050F824504A
:102EA0006DB137B100216A480068443040F8241001
:102EB00005E0681E66490968443141F82400002194
:102EC0006348006848300155FEF7CDFB2846BDE851
:102ED000F0812DE9F04704460F4690461D46DDF887
:102EE00020900CB9012000E0002038B941F2B02256
:102EF000AFF67471AFF6607000F030FBFEF790FB38
:102F0000534800684830005D02281AD050490968CB
:102F1000443101EB84000168B943016001214C4850
:102F2000006848300155B9F1000F0AD04846FFF754
:102F300043F94FF080504B490860BFF34F8FBFF308
:102F40006F8FFEF790FBFEF76BFB2DB140480068DA
:102F5000443050F8240028603D4800684830005D47
:102F6000022801D0002609E039490968443101EB03
:102F70008400016821EA080101600126002134482B
:102F8000006848300155FEF76EFB3046BDE8F0871B
:102F90002DE9F05F07460D4616469846DDF828A055
:102FA0004FF0010B0DB9012000E0002030B941F2D3
:102FB00008322D4901F1180000F0D0FA37B941F27A
:102FC0000932294901F1180000F0C8FA3C46FEF721
:102FD00027FBBAF1000F05D004F1440050F825009A
:102FE000CAF8000004F1480010F80590022141558C
:102FF000B8F1050F3ED2DFE808F03C030D171C00C6
:1030000004F1440050F82500304304F1440141F834
:1030100025003EE004F1440050F82500401C04F176
:10302000440141F8250034E004F1440040F82560F3
:103030002FE0B9F1020F19D004F1440040F82560E7
:1030400016E00000A80000208400002074910020F9
:103050006C000020900000209400002080000020E0
:103060008800002004ED00E0801F00084FF0000BF6
:103070000FE00EE0FE48006808B9012000E00020E3
:1030800030B941F23E32FB4901F1180000F066FA16
:1030900000BF00BFB9F1010F57D16069D4E9021236
:1030A0008A60D4E902214A60211D42688A4201D126
:1030B000E1684160002262610168491E016094F884
:1030C0002C1001208840EC4909680843EA4908604F
:1030D000E16A01EB8101E94A02EB81014868A060E5
:1030E0008268E260211D826851608160E16A01EBC3
:1030F0008101E24A02EB81026261E16A01EB810136
:10310000DE4A52F82110491CE26A02EB8202DB4BD4
:1031100043F82210A06A08B9012000E0002030B96D
:1031200041F24D32D34901F1180000F017FAD449A9
:10313000E06A0968C96A884207D94FF08050D149CE
:103140000860BFF34F8FBFF36F8FFEF78CFA5846BE
:10315000BDE8F09F2DE9F84F80460D461746994689
:10316000DDF828B001200090B8F1000F06D141F23F
:103170008532C04901F1180000F0F0F90DB90120C5
:1031800000E0002030B941F28632BA4901F118005E
:1031900000F0E4F9FEF797FA444600BF5021EFF340
:1031A000118081F31188BFF34F8FBFF36F8F00BF82
:1031B0000646BBF1000F05D004F1440050F825008D
:1031C000CBF8000004F1480010F805A00221415599
:1031D000B9F1050F29D2DFE809F027030D171C000C
:1031E00004F1440050F82500384304F1440141F84B
:1031F000250029E004F1440050F82500401C04F1AA
:10320000440141F825001FE004F1440040F8257016
:103210001AE0BAF1020F04D004F1440040F825701E
:1032200001E0002000900FE00EE09148006808B92E
:10323000012000E0002030B941F2CD328D4901F18A
:10324000180000F08BF900BF00BFBAF1010F6DD17B
:10325000A06A08B9012000E0002030B941F2D8325C
:10326000844901F1180000F079F987480068E8BB4B
:103270006069D4E902128A60D4E902214A60211D02
:1032800042688A4201D1E1684160002262610168BE
:10329000491E016094F82C10012088407649096885
:1032A000084375490860E16A01EB8101734A02EB4A
:1032B00081014868A0608268E260211D82685160D7
:1032C0008160E16A01EB81016C4A02EB810262617B
:1032D000E16A01EB8101694A52F82110491CE26A56
:1032E00002EB8202654B43F8221011E0FFE76749C9
:1032F0004868E0618268226204F1180182685160C6
:103300008160624AA26211460968491C116000BFCF
:103310005B49E06A0968C96A884207D90B9810B10D
:1033200001210B98016001205949086000BF86F314
:10333000118800BF0098BDE8F88F2DE9F0470546D9
:103340000E46904635B941F20C424A4901F1180047
:1033500000F004F90EB9012000E0002030B941F27C
:103360000D42444901F1180000F0F8F8FEF7ABF9FE
:103370002C4600BF5021EFF3118081F31188BFF379
:103380004F8FBFF36F8F00BF074604F1480010F85E
:10339000069002218155001F50F82600401C04F1C0
:1033A000440141F82600B9F1010F73D1A06A08B9B0
:1033B000012000E0002030B941F233422D4901F1F3
:1033C000180000F0CBF83048006800283DD1606953
:1033D000D4E902128A60D4E902214A60211D4268C0
:1033E0008A4201D1E1684160002262610168491EA0
:1033F000016094F82C10012088401F490968084397
:103400001D490860E16A01EB81011C4A02EB810160
:103410004868A0608268E260211D82685160816016
:10342000E16A01EB8101154A02EB81026261E16A06
:1034300001EB8101114A52F82110491CE26A02EBAA
:1034400082020E4B43F8221010E010494868E061F8
:103450008268226204F118018268516081600B4A1F
:10346000A26211460968491C116000BF044912E0BC
:1034700080000020801F000884000020749100203C
:103480006C00002004ED00E0A80000201C94002047
:10349000900000200DE0E06A0968C96A884208D9F6
:1034A000B8F1000F02D00120C8F800000120274920
:1034B000086000BF87F3118800BFBDE8F0872DE9E1
:1034C000F04106460C460CB9012000E0002030B95E
:1034D00041F263421E4901F1180000F03FF816B9AD
:1034E0001C48006800E030460746FEF799F807F1EF
:1034F0004800005D022805D1002107F14800015570
:10350000012500E00025FEF7AEF82846BDE8F08171
:103510002DE9F04106460C46174616B90D480068DD
:1035200000E030460546FEF77BF805F1440050F810
:10353000248050F82400B84305F1440141F82400E8
:10354000FEF791F84046BDE8F081000090000020B1
:10355000801F00086C000020704700000FB4044971
:1035600010B503AA029800F013F910BC5DF814FB23
:10357000240000202DE9F0410E4604460020206280
:103580002046E168884730B3252805D0D4E90121D9
:103590009047206A401CF2E7E168204600278847F0
:1035A000050018D0A5F14100192802D820354FF4A4
:1035B00000673246294620462760FCF7F3FD40B1FC
:1035C000012804D0F61D26F007060836D8E7361D78
:1035D000D6E72846DAE7206ABDE8F08170B50C46E8
:1035E0000546012A05D02878800600D5EA6900231F
:1035F00002E0012305E05B1C934202D2E05C00285C
:10360000F9D1A869E618C01AA861286A1844286286
:103610002846AFF3008004E0D5E9012114F8010B3E
:103620009047B442F8D32846AFF3008070BD000045
:103630002DE9F0410646002410687529314616A58B
:1036400010D0AFF30080002802DA404213A507E053
:1036500031688A0701D512A502E0490704D511A5F2
:10366000012401E0AFF3008000210A2206F12407C3
:1036700009E0B0FBF2FCB0FBF2F302FB1C003030BF
:1036800078541846491C0028F3D123462A46304670
:10369000BDE8F04100F00CB8000000002D00000073
:1036A0002B000000200000007047704770477047F3
:1036B0002DE9F0470D4699469246044600F124084C
:1036C0000168880604D5E06921F01001216000E05E
:1036D0000120A84201DD471B00E00027A1697A19FB
:1036E00002EB0900081AA0612078C00602D4204627
:1036F000AFF30080002608E0D4E901211AF80600A3
:103700009047206A401C761C20624E45F4DB2078EE
:10371000C0060AD52046AFF3008006E0D4E90121B7
:1037200030209047206A401C2062381EA7F1010714
:10373000F4DC07E0D4E9012118F805009047206A7D
:10374000401C2062281EA5F10105F3DC2046AFF3E2
:1037500000802078000602D50220BDE8F087012015
:10376000FBE710B5436913B1AFF3008001E0FFF749
:1037700035FF012010BD127800F124010A700022EB
:103780004A700122EDE711684FF0FF32E9E70000CF
:10379000074B70B50D467B4400F011F804462846EF
:1037A00000F020F810B14FF0FF3070BD204670BD22
:1037B0009DCFFFFF01694A1C02610878704700B580
:1037C0008FB0CDE901310021059105497944CDE95A
:1037D000031011466846FFF7CDFE0FB000BD000094
:1037E000E5FFFFFF007B00F080007047754600F0AA
:1037F0002BF8AE4605006946534620F00700854683
:1038000018B020B5FDF746F8BDE820404FF000069F
:103810004FF000074FF000084FF0000B21F00701B8
:10382000AC46ACE8C009ACE8C009ACE8C009ACE8FB
:10383000C0098D46704710B50446AFF3008020469E
:10384000BDE81040FCF7C3BC004870475894002006
:103850007038000800000020AC0000006C01000877
:103860001C390008AC0000200C9A000088010008F8
:1038700000A24A040000000000000000010203044E
:10388000060708090000000000000000000000001A
:103890000000000000000000000000000000010225
:1038A00003040102030406070809020406080000D5
:1038B000AAAAAAAA00000000000000000000000060
:1038C00000000000000000000000000000000000F8
:1038D00000000000000000000000000000000000E8
:1038E00000000000000000000000000000000000D8
:1038F00000000000000000000000000000000000C8
:1039000000000000000000000000000000000000B7
:0C391000000000001F000000000000008C
:0400000508000131BD
:00000001FF
